:10000000E02D0020C54300000FC10000994300000F
:100010009943000099430000994300009943000070
:10002000000000000000000000000000553E00003D
:100030009943000000000000FD3D000099430000CE
:10004000D53E0000D53E0000D53E0000D53E000064
:10005000D53E0000D53E0000D53E0000D53E000054
:10006000D53E0000D53E0000D53E0000D53E000044
:10007000D53E0000D53E0000D53E0000D53E000034
:10008000D53E0000D53E0000D53E0000D53E000024
:10009000D53E0000D53E0000D53E0000D53E000014
:1000A000D53E0000D53E0000D53E0000D53E000004
:1000B000D53E0000D53E0000D53E0000D53E0000F4
:1000C000D53E0000D53E0000D53E0000D53E0000E4
:1000D000D53E0000D53E0000D53E0000D53E0000D4
:1000E000D53E0000D53E0000D53E0000D53E0000C4
:1000F000D53E0000D53E0000D53E0000D53E0000B4
:10010000D53E0000D53E0000D53E0000D53E0000A3
:10011000D53E0000D53E0000D53E0000D53E000093
:10012000D53E0000D53E0000D53E0000D53E000083
:10013000D53E0000D53E0000D53E0000D53E000073
:10014000D53E0000D53E0000D53E0000D53E000063
:04015000D53E000098
:04015400FFFFFFFFAB
:1001580081F0004102E000BF83F0004330B54FEA70
:1001680041044FEA430594EA050F08BF90EA020FDD
:100178001FBF54EA000C55EA020C7FEA645C7FEA70
:10018800655C00F0E2804FEA5454D4EB5555B8BF93
:100198006D420CDD2C4480EA020281EA030382EA04
:1001A800000083EA010180EA020281EA0303362D96
:1001B80088BF30BD11F0004F4FEA01314FF4801C69
:1001C8004CEA113102D0404261EB410113F0004F7B
:1001D8004FEA03334CEA133302D0524263EB430332
:1001E80094EA050F00F0A780A4F10104D5F1200ED0
:1001F8000DDB02FA0EFC22FA05F2801841F100012B
:1002080003FA0EF2801843FA05F359410EE0A5F1FE
:1002180020050EF1200E012A03FA0EFC28BF4CF02F
:10022800020C43FA05F3C01851EBE37101F00045E5
:1002380007D54FF0000EDCF1000C7EEB00006EEBF2
:100248000101B1F5801F1BD3B1F5001F0CD349087C
:100258005FEA30004FEA3C0C04F101044FEA4452D3
:1002680012F5800F80F09A80BCF1004F08BF5FEA5A
:10027800500C50F1000041EB045141EA050130BD3A
:100288005FEA4C0C404141EB0101013C28BFB1F54C
:10029800801FE9D291F0000F04BF01460020B1FA97
:1002A80081F308BF2033A3F10B03B3F120020CDA6A
:1002B8000C3208DD02F1140CC2F10C0201FA0CF048
:1002C80021FA02F10CE002F11402D8BFC2F1200CAD
:1002D80001FA02F120FA0CFCDCBF41EA0C01904063
:1002E800E41AA2BF01EB0451294330BD6FEA0404AC
:1002F8001F3C1CDA0C340EDC04F11404C4F1200297
:1003080020FA04F001FA02F340EA030021FA04F3A8
:1003180045EA030130BDC4F10C04C4F1200220FAFF
:1003280002F001FA04F340EA0300294630BD21FA3D
:1003380004F0294630BD94F0000F83F4801306BF03
:1003480081F480110134013D4EE77FEA645C18BFF7
:100358007FEA655C29D094EA050F08BF90EA020F8E
:1003680005D054EA000C04BF1946104630BD91EA86
:10037800030F1EBF0021002030BD5FEA545C05D189
:100388004000494128BF41F0004130BD14F58004C8
:100398003CBF01F5801130BD01F0004545F0FE413C
:1003A80041F470014FF0000030BD7FEA645C1ABF71
:1003B800194610467FEA655C1CBF0B46024650EAA8
:1003C800013406BF52EA033591EA030F41F40021D4
:1003D80030BD00BF90F0000F04BF0021704730B55A
:1003E8004FF4806404F132044FF000054FF000012F
:1003F80050E700BF90F0000F04BF0021704730B5F0
:100408004FF4806404F1320410F0004548BF4042C4
:100418004FF000013EE700BF42004FEAE2014FEA19
:1004280031014FEA02701FBF12F07F4393F07F4FF4
:1004380081F06051704732F07F4208BF704793F0F7
:100448007F4F04BF41F40021704730B54FF460740A
:1004580001F0004521F000411CE700BF50EA01020D
:1004680008BF704730B54FF000050AE050EA0102B6
:1004780008BF704730B511F0004502D5404261EB26
:1004880041014FF4806404F132045FEA915C3FF467
:10049800D8AE4FF003025FEADC0C18BF03325FEA04
:1004A800DC0C18BF033202EBDC02C2F1200300FAB5
:1004B80003FC20FA02F001FA03FE40EA0E0021FADA
:1004C80002F11444BDE600BF70B54FF0FF0C4CF4C8
:1004D800E06C1CEA11541DBF1CEA135594EA0C0F7A
:1004E80095EA0C0F00F0DEF82C4481EA030621EAB5
:1004F8004C5123EA4C5350EA013518BF52EA0335F0
:1005080041F4801143F4801338D0A0FB02CE4FF0A1
:100518000005E1FB02E506F00042E0FB03E54FF0D1
:100528000006E1FB03569CF0000F18BF4EF0010EC9
:10053800A4F1FF04B6F5007F64F5407404D25FEAC5
:100548004E0E6D4146EB060642EAC62141EA555178
:100558004FEAC52040EA5E504FEACE2EB4F1FD0CBA
:1005680088BFBCF5E06F1ED8BEF1004F08BF5FEA38
:10057800500E50F1000041EB045170BD06F00046EA
:1005880046EA010140EA020081EA0301B4EB5C0497
:10059800C2BFD4EB0C0541EA045170BD41F480118F
:1005A8004FF0000E013C00F3AB8014F1360FDEBFB4
:1005B800002001F0004170BDC4F10004203C35DA90
:1005C8000C341BDC04F11404C4F1200500FA05F313
:1005D80020FA04F001FA05F240EA020001F00042B4
:1005E80021F0004110EBD37021FA04F642EB06012A
:1005F8005EEA430E08BF20EAD37070BDC4F10C0454
:10060800C4F1200500FA04F320FA05F001FA04F217
:1006180040EA020001F0004110EBD37041F1000103
:100628005EEA430E08BF20EAD37070BDC4F120050E
:1006380000FA05F24EEA020E20FA04F301FA05F276
:1006480043EA020321FA04F001F0004121FA04F21E
:1006580020EA020000EBD3705EEA430E08BF20EAEE
:10066800D37070BD94F0000F0FD101F00046400028
:1006780041EB010111F4801F08BF013CF7D041EAAA
:10068800060195F0000F18BF704703F000465200AE
:1006980043EB030313F4801F08BF013DF7D043EA7F
:1006A8000603704794EA0C0F0CEA135518BF95EA35
:1006B8000C0F0CD050EA410618BF52EA4306D1D1BC
:1006C80081EA030101F000414FF0000070BD50EADB
:1006D800410606BF1046194652EA430619D094EA65
:1006E8000C0F02D150EA013613D195EA0C0F05D14F
:1006F80052EA03361CBF104619460AD181EA0301A3
:1007080001F0004141F0FE4141F470014FF000005A
:1007180070BD41F0FE4141F4780170BD70B54FF0F5
:10072800FF0C4CF4E06C1CEA11541DBF1CEA135575
:1007380094EA0C0F95EA0C0F00F0A7F8A4EB050457
:1007480081EA030E52EA03354FEA013100F088804E
:100758004FEA03334FF0805545EA131343EA126317
:100768004FEA022245EA111545EA10654FEA0026CC
:100778000EF000419D4208BF964244F1FD0404F585
:10078800407402D25B084FEA3202B61A65EB0305E1
:100798005B084FEA32024FF480104FF4002CB6EB9E
:1007A800020E75EB030E22BFB61A754640EA0C001E
:1007B8005B084FEA3202B6EB020E75EB030E22BF5E
:1007C800B61A754640EA5C005B084FEA3202B6EB9F
:1007D800020E75EB030E22BFB61A754640EA9C005E
:1007E8005B084FEA3202B6EB020E75EB030E22BF2E
:1007F800B61A754640EADC0055EA060E18D04FEAEC
:10080800051545EA16754FEA06164FEAC30343EA8B
:1008180052734FEAC2025FEA1C1CC0D111F4801F58
:100828000BD141EA00014FF000004FF0004CB6E751
:1008380011F4801F04BF01430020B4F1FD0C88BFF0
:10084800BCF5E06F3FF6AFAEB5EB030C04BFB6EBFB
:10085800020C5FEA500C50F1000041EB045170BDEE
:100868000EF0004E4EEA113114EB5C04C2BFD4EB1B
:100878000C0541EA045170BD41F480114FF0000E9F
:10088800013C90E645EA060E8DE60CEA135594EA1B
:100898000C0F08BF95EA0C0F3FF43BAF94EA0C0F1E
:1008A8000AD150EA01347FF434AF95EA0C0F7FF493
:1008B80025AF104619462CE795EA0C0F06D152EAE7
:1008C80003353FF4FDAE1046194622E750EA4106CB
:1008D80018BF52EA43067FF4C5AE50EA41047FF4DC
:1008E8000DAF52EA43057FF4EBAE12E74FEA41023F
:1008F800B2F1E04324BFB3F5001CDCF1FE5C0DD976
:1009080001F0004C4FEAC0024CEA5070B2F1004FBF
:1009180040EB830008BF20F00100704711F0804FC2
:1009280021D113F13872BCBF01F00040704741F487
:1009380080114FEA5252C2F11802C2F1200C10FA8B
:100948000CF320FA02F018BF40F001004FEAC1236F
:100958004FEAD32303FA0CFC40EA0C0023FA02F313
:100968004FEA4303CCE77FEA625307D150EA0133E9
:100978001EBF4FF0FE4040F44000704701F00040B9
:1009880040F0FE4040F40000704700BF7BB972B9E8
:100998000029BEBF00204FF0004106E008BF002834
:1009A8001CBF6FF000414FF0FF3000F0BBB9ADF154
:1009B800080C6DE904CE002909DB002B1ADB00F0D6
:1009C8004DF8DDF804E0DDE9022304B07047404249
:1009D80061EB4101002B1BDB00F040F8DDF804E07F
:1009E800DDE9022304B0404261EB4101524263EB6E
:1009F80043037047524263EB430300F02FF8DDF8DE
:100A080004E0DDE9022304B0404261EB4101704794
:100A1800524263EB430300F021F8DDF804E0DDE91E
:100A2800022304B0524263EB4303704753B94AB9F7
:100A3800002908BF00281CBF4FF0FF314FF0FF30DE
:100A480000F070B9ADF1080C6DE904CE00F006F8BD
:100A5800DDF804E0DDE9022304B070472DE9F04732
:100A6800089E0D4604468A46002B7FD18A421746C7
:100A780041D9B2FA82F24AB1C2F1200105FA02F371
:100A88009740944020FA01F141EA030A4FEA1748D7
:100A98004FEA144C1FFA87F9BAFBF8FE08FB1EA3AD
:100AA8000EFB09F14CEA0343994206D9FB1802D21E
:100AB800994200F224810EF1FF3E591AA3B2B1FB0C
:100AC800F8F008FB101100FB09F943EA0144A145BD
:100AD80005D93C1902D2A14500F20E810138A4EBD8
:100AE800090440EA0E4000211EB1D4400023C6E9A3
:100AF8000043BDE8F08702B9FFDEB2FA82F2002AAD
:100B08004FD1CB1B4FEA174E1FFA87F80121250C4E
:100B1800B3FBFEFC0EFB1C302B4608FB0CF945EA28
:100B28000045A9450AD97D192CBF01230023A945F1
:100B380002D9002B00F0D9800CF1FF3CA5EB090588
:100B4800A3B2B5FBFEF00EFB105508FB00F843EA14
:100B58000544A04505D93C1902D2A04500F2C98038
:100B68000138A4EB080440EA0C40BDE78B4208D9E1
:100B7800002E00F0B1800021C6E900050846BDE856
:100B8800F087B3FA83F1002946D1AB42C0F0A780C1
:100B9800824240F2A4800846002EAAD0C6E9004A44
:100BA800A7E7C2F12000974001FA02F34FEA174E77
:100BB800C14024FA00F51FFA87F894401D43B1FBA1
:100BC800FEF02B0C0EFB101100FB08FC43EA01435E
:100BD8009C4509D9FB182CBF012100219C4502D94D
:100BE800002900F095800138A3EB0C03ADB2B3FBEC
:100BF800FEF10EFB113301FB08FC45EA0345AC4549
:100C080005D97D1902D2AC4500F289800139A5EBDE
:100C18000C0341EA00417AE7C1F120048B4002FA53
:100C280001F705FA01FCE24020FA04F8E54000FA71
:100C380001FE134348EA0C024FEA13484FEA124CEC
:100C48001FFA83F9B5FBF8FA08FB1A550AFB09F0F5
:100C58004CEA054C60450AD913EB0C0C2CBF012556
:100C68000025604501D9002D55D00AF1FF3AACEBBB
:100C7800000C92B2BCFBF8F008FB10CC00FB09F9A1
:100C880042EA0C4CE14505D913EB0C0C01D2E145C5
:100C98003BD8013840EA0A40ACEB090CA0FB0789B5
:100CA800CC4545464A4602D306D1C64504D201384A
:100CB800B8EB070569EB03022EB3BEEB05036CEB3B
:100CC800020C23FA01F20CFA04F42CFA01F30021C5
:100CD8001443C6E900430CE73146304609E7841A55
:100CE80065EB030301209A4656E7ACF1020C3D443C
:100CF80024E702383C4434E702383C44EFE6AEF1DE
:100D0800020E3B44D9E63146F3E602389C44C1E77B
:100D180002383B4468E7AAF1020A9C44A7E7023973
:100D28003D4474E7704700BF2DE9F04F6E4897B017
:100D38000AF00FF86D4C20460CF0B7FB254648B179
:100D48006B4803F08FFD002004F0A4FB014630B18E
:100D5800684801E02168684803F084FD11E06748AD
:100D680003F080FD0FF2781BDBE900ABA046644C72
:100D7800AB6839214046DB68984728B1614803F0E1
:100D880071FD17B0BDE8F08F0BA90D2000F0D0FB66
:100D98000DA9102000F0CCFB0FA91B2000F0C8FB08
:100DA8000C98FFF727FB52465B46FFF7B7FC064651
:100DB8000B980F46FFF71EFB02460B463046394696
:100DC800FFF7CCF9CDE906010E98FFF713FB524661
:100DD8005B46FFF7A3FC06460D980F46FFF70AFB94
:100DE80002460B4630463946FFF7B8F9CDE9080107
:100DF8001098FFF7FFFA52465B46FFF78FFC06464E
:100E08000F980F46FFF7F6FA0B460246394630466A
:100E1800FFF7A4F9FFF76AFD8146A060DDE9060146
:100E2800FFF764FD06462060DDE90801FFF75EFD77
:100E3800E268606001320890E26030460692FFF78F
:100E4800EBFA069A064648460F460492FFF7E4FA7C
:100E5800089BCDE902011846FFF7DEFA3B46324609
:100E6800CDE90001284803F0FDFC10222449274859
:100E78000BF0C4F9264803F0F5FC1026234FDFF8E1
:100E8800AC90484617F8011B013E03F0EBFC16F046
:100E9800FF06F6D11F4F204811AE03F0E3FC0FCF39
:100EA8000FC601223B681D49336011A81C4B0092F4
:100EB80004F084FF014608B11A484DE700214FF4B9
:100EC800004009F0A1F904F0ABFF014608B116484B
:100ED80042E700214FF4003009F096F948E700BFD7
:100EE8000000000080842E411AED0000E4E00000BC
:100EF80055ED000084ED00006DED0000A4ED00004C
:100F0800400A0020BEED0000E7ED00007A14002042
:100F18003AEE000040E4000050ED000030010020EF
:100F28008CE4000055EE00007BEE00004FEE000060
:100F38000D2938B5144603691FD1AF251B884FF614
:100F4800FF725D43002100232846FFF71FFD2D385F
:100F580020604FF6FF72284600230021FFF716FD98
:100F6800134DA2FB05014FF6FF7205FB0311002389
:100F7800FFF70CFD6060002038BD10290ED16420F9
:100F88005B885843030C136043F6095380B2A0FBF7
:100F98000301830A43EA81535360ECE71B2905BF29
:100FA80000209B886FF08500136008BF5060E3E75E
:100FB80040420F00F0B5392905464668076987B0F1
:100FC80007D01B2900F2EB80764BCB40DB0740F1C2
:100FD800E68040F2012332899A425DD111F01D0F5B
:100FE80029D042F29611304609F008FE041E0DDAA7
:100FF800337A012B0AD16C496C4B6D48C91AC90860
:10100800890141F001010AF00BFB3AE040F2676008
:10101800002109F0F1FD4EF60541686809F0EEFD82
:10102800041E4CDA6049614B6248C91AC908890133
:1010380041F00101E7E742F29D11304609F0DEFD7B
:10104800041E02DA337A012BD5D04FF42030DFE7C3
:101058009DF80C309DF80D4044EA0324204609F021
:10106800BCFD9DF80E3083420ED0504B4E4952487D
:10107800C91AC908890141F001010AF0D1FA6FF0D3
:101088000404204607B0F0BD11200021C4F30A046F
:1010980009F0B2FD002CBED103234EF2B8416868B6
:1010A80003AA09F0BFFD04460028D1D03E493F4BB2
:1010B8004248C91AC908890141F00101A3E7002182
:1010C800012009F099FD09226B6818689B88049231
:1010D8000322CDF80CD08DF81420826803A99468F7
:1010E8000122A047041E12DA2F49304B3448C91A8E
:1010F800C908890141F001010AF092FA2A492B4BEB
:101108003048C91AC908890141F001017BE79DF8F7
:1011180000309DF8010040EA0320B88009F05DFD29
:101128009DF8023083420CD01F49204B2648C91A2B
:10113800C908890141F001010AF072FA6FF004044C
:10114800DCE79DF803309DF8040040EA032038806E
:1011580009F043FD9DF80530834208D01249134B2E
:101168001A48C91AC908890141F00101E4E79DF844
:1011780006309DF8070040EA0320788009F02DFD2D
:101188009DF80830834208D00749084B1048C91A0F
:10119800C908890141F00101CEE7002471E76FF029
:1011A80085046EE70020010828E3000028E300001A
:1011B80078E90000E2E90000C1E90000A3E90000C5
:1011C800FFE900005CEA000020EA000035EA0000C0
:1011D80048EA00002DE9F0434668054687B03068C4
:1011E8000CF063F908B343F2F661686809F006FD8C
:1011F80000214FF4247009F0FFFC43F686716868FB
:1012080009F0FCFC044600214FF4804009F0F4FC8E
:10121800002C1ADAB349B44BB448C91AC908890171
:1012280041F001010AF0FCF90BE0AF4BAD49B048C1
:10123800C91AC908890141F001010AF0F1F96FF0F2
:101248001204204607B0BDE8F08343F2466168689F
:1012580009F0D4FC044600214FF4247009F0CCFCBA
:10126800002C08DA9F49A04BA248C91AC90889016D
:1012780041F00101D6E742F22741F289686809F096
:10128800E9FC04460021212009F0B6FC002C08DA0C
:101298009449954B9848C91AC908890141F0010138
:1012A800C0E7032302AA42F22231686809F0BAFCB7
:1012B80000210446212009F09FFC9DF809309DF883
:1012C800080043EA002009F088FC9DF80A308342B0
:1012D80014D0854B83498948C91AC908890141F046
:1012E80001010AF09DF96FF004047E497E4B8448A1
:1012F800C91AC908890141F0010193E7002CF4DB00
:10130800AF23B28942F21D41C2EB02425732B2FB0F
:10131800F3F2686892B209F09DFC0446002121208E
:1013280009F06AFC002C08DA6E496F4B7548C91A37
:10133800C908890141F0010174E7032302AA42F2B6
:101348001831686809F06EFC00210446212009F074
:1013580053FC9DF809309DF8080043EA002009F085
:101368003CFC9DF80A30834214D05F4B5D496648C7
:10137800C91AC908890141F001010AF051F96FF051
:1013880004045849584B6148C91AC908890141F0F1
:10139800010147E7002CF4DB0F2343F28261686800
:1013A80002AAD5F8109009F03DFC041E13DA4D4A44
:1013B8004D4B2146D21AD2089201554842F00102FB
:1013C8000AF03BF94749484B5248C91AC9088901EC
:1013D80041F0010126E70021212009F00DFC9DF8CC
:1013E80008309DF8094044EA0324204609F0F5FB3B
:1013F8009DF80A3083420CD03A493B4B4648C91AFB
:10140800C908890141F001010AF00AF96FF00404E2
:10141800D8E79DF80B309DF80C7047EA032738464B
:1014280009F0DBFB9DF80D30834208D02D492E4B87
:101438003A48C91AC908890141F00101E4E79DF851
:101448000E309DF80F8048EA0328404609F0C5FB96
:101458009DF81030834208D02249234B3048C91ADE
:10146800C908890141F00101CEE723460F212D4A21
:10147800CDE9007809F1060003F0DCF942F21641E3
:10148800B27A686809F0E6FB041E08DA1549164BBB
:101498002548C91AC908890141F00101C2E621207D
:1014A800002109F0A9FB737A022B01D10024C8E6B8
:1014B800012B10D093B942F2B111686809F09EFB74
:1014C800041EF3DA0749084B1848C91AC9088901E4
:1014D80041F00101A6E642F2AC11EEE74FF0FF340D
:1014E800F0E700BF28E3000028E3000096EA0000C8
:1014F80084EA0000C9EA0000ECEA000019EB0000E9
:101508003AEB000069EB000099EB0000BDEB00002E
:10151800EFEB000084EC000015EC000035EC000057
:1015280055EC000075EC0000B2EC0000E0EC0000A7
:1015380010B403460A46034881680C6919462346D5
:1015480010BC1847E4E000000B6801330B60014B46
:101558001B68184738010020014B1860704700BF0E
:101568003801002007B50B460021024601910348C7
:1015780001A900F0FFF803B05DF804FB5115000065
:1015880030B5002585B0CDE90101044601A905481B
:10159800039500F0EFF8DDE902309842B8BF255412
:1015A80005B030BD35AD00002DE9F84FB0F8189002
:1015B800044619F0080893460DD001290CBF49F0DC
:1015C800100949F02009A0F818908BF31188BFF38F
:1015D8006F8FBDE8F88F09F00709022907D1204667
:1015E80009F0D1FB0028F0D00128238B50D167697E
:1015F800218B002F15DA256821F00701C4E900883E
:1016080041F0010121830026218B01F0070ACA4518
:1016180002D0A368002B5CD10DB9002E74D0002332
:1016280058E001F007035A1F012A20D821F00701CA
:10163800062B256889B2C4E900880CD1002D2B46F9
:1016480038BF00232BB1628B1B6801326283002BE9
:10165800F8D141F002012046218309F094FB0646A7
:101668000028D1D0238B43F020032383CBE7042B1E
:101678000CD121F0070189B22046218309F083FBB0
:1016880005460028BFD041F0200121830025BAE794
:10169800032809D1226923F00703166843F00603DB
:1016A800002523832F46AFE7042806D1226923F0BB
:1016B8000703566843F00403F2E7052806D12269B8
:1016C80023F00703966843F00503E9E700252E4653
:1016D800E8E7012341F0080121838BF31188BFF368
:1016E8006F8F03BB002D33D116B120462049B04778
:1016F8004FF02003EFF3118B83F31288BFF36F8F42
:10170800238B23F008032383238BDA0628D50121B2
:1017180023F010032383B4F8189009F0070900296F
:101728007FF45BAF51E7A1680029DBD00B68002B81
:1017380038BF0023994652463B462046D1F804B0AC
:10174800D847B9F1000FCDD04946D9F80030EEE7B7
:1017580029463B46524620462D6809F030FBC1E732
:1017680013F020011EBF23F0200302212383D2E7B8
:10177800F3AD00002DE9F04F884691461C46002540
:10178800A5B0039099F8000010B9284600F018BEDB
:1017980009F101032528099307D04146039B98477F
:1017A8000028C0F20D86013545E21822002116A84E
:1017B8000AF02FFD99F80130252B79D00022164622
:1017C8009646174694460998014610F8013B2B2B7C
:1017D80000F09E8000F29580202B00F09B80232B48
:1017E80000F09B80BCF1000F05D09DF8600040F030
:1017F80004008DF860002FB19DF8600040F00800EB
:101808008DF86000BEF1000F05D09DF8600040F033
:1018180010008DF860002EB19DF8600040F02000A7
:101828008DF860002AB19DF8602042F040028DF8E2
:1018380060209DF8602002F04400442803D16FF333
:1018480086128DF860209DF860202A2B42F08002D5
:101858008DF860207CD19DF861204B1C42F001027C
:101868008DF861201A782E2A0CBF012100219DF8DD
:10187800612061F341028DF8612075D15A782A2AD6
:101888006BD000210A260133184610F8012BA2F16B
:101898003007092F40F2AA809DF860201A91C2F300
:1018A800400040EAD17161F341028DF860205BE0AD
:1018B80009F1020209928DF863309DF86130DE0764
:1018C80040F16F8154F8042B002A089208DA9DF839
:1018D800602042F004028DF86020089A5242089273
:1018E800580740F1668154F8047B002F80F2658127
:1018F8009DF861306FF341038DF861304FF0FF3789
:101908005BE12D2B0BD0302B7FF46CAF01225BE712
:10191800012759E74FF0010E56E7012654E74FF02B
:10192800010C51E733460CFB0202303A1E4616F80A
:10193800010BA0F13007092FF4D9994292D09DF8F4
:1019480060101992D20F62F341018DF8601089E797
:101958000B4600224FF00A0CE8E79DF8612002339D
:1019680042F004028DF86120194611F8012B6C2A07
:101978005CD040D8682A46D06A2A61D04C2A67D001
:1019880019460B4613F8012B782A09938DF8632022
:1019980000F2DF80572A68D8412A04D0A2F1450313
:1019A800022B00F2D68004219DF8623002F0DF029B
:1019B800A2F1410A61F30203DAF100029DF8611015
:1019C80042EB0A0262F3C7110A068DF862308DF8FD
:1019D8006110CBB200F1E38003F07802182A40F0DE
:1019E800B5806FF3C6038DF861309CE006FB0121DA
:1019F8000346303948E7742A26D07A2AC0D106220D
:101A08009DF861300DE05A78682A9DF8612006D16A
:101A1800012161F3C6028DF86120991CB1E71346D4
:101A2800022262F3C6038DF86130AAE75A786C2A5D
:101A38009DF8612001D10421EBE713460322F0E76A
:101A480005229DF86130ECE707229DF86130E8E750
:101A5800BDF8603023F4F04323F0020343F48043DD
:101A680043F00203ADF860308BE7A2F15803202B56
:101A78006FD801A151F823F0331B00005B1B000055
:101A88005B1B00005B1B00005B1B00005B1B000076
:101A98005B1B00005B1B00005B1B0000AF19000014
:101AA8005B1B0000331B0000051B0000AF19000082
:101AB800AF190000AF1900005B1B0000051B0000F8
:101AC8005B1B00005B1B00005B1B00005B1B000036
:101AD800691B0000331B0000891B00005B1B000012
:101AE8005B1B0000891B00005B1B0000331B000010
:101AF8005B1B00005B1B0000331B000001219DF8ED
:101B0800623061F302038DF862309DF8613003F0B2
:101B18007803402B02BF9DF8601041F001018DF859
:101B28006010632A05D0002306E002219DF8623088
:101B3800E7E7003B18BF01239DF86020C2F340018E
:101B48000B4363F341028DF86020B6E613F0380FBB
:101B5800E9D09DF8603043F001038DF86030E2E78A
:101B680003229DF8623062F302038DF862309DF81B
:101B7800613003F07803A3F140077B427B41DBE748
:101B880003229DF8623062F302038DF862309DF8FB
:101B9800613013F0780F14BF01230023CCE7012331
:101BA800CAE79DF96020002AACBF4FF0FF32199AAE
:101BB80095E699077FF5A2AE1A9F0023CDE9193360
:101BC8009DF8623003F00703042B09D19DF86130BA
:101BD8009A0705D49DF96130002BB4BF0D2706275D
:101BE8009DF862309DF8611003F00703012BC1F3E3
:101BF800C30136D1CB1E042B20D8DFE803F003073E
:101C0800071F1F0054F8042BD31704E0073424F0EF
:101C18000704F4E80223CDE916239DF86060B307B2
:101C280055D04A464146099B039809F094FC002880
:101C3800C0F2C6830544DDF82490A3E554F8042BCC
:101C480001294FEAE273CDE9162305D19DF85830F2
:101C5800169300231793E0E70229DED1BDF9582037
:101C6800D2E7022B23D1CB1E042B13D8DFE803F0D5
:101C7800030A0A12120000232268201D16921793E5
:101C88000446CAE7073424F00700F0E80223CDE948
:101C98001623F5E754F8043B012916934FF0000387
:101CA8001793D3D00229B8D1BDF85830D0E7042B08
:101CB80007D1073424F00704F4E80223CDE91623FA
:101CC800ABE7032B04BF54F8043B1693A5E79DF834
:101CD8006390B9F1780FAED8B9F1570F00F2A78029
:101CE800B9F1250F00F0EE80B9F1240FA3D9B9F1AD
:101CF800410F03D0A9F14503022B9CD8DDE9162337
:101D0800002A73F10001C0F2D581310700F1D481B6
:101D180016F0100618BF2026C3F30A5BC3F313039B
:101D280006920793DDE90623CDE91223BBF1000FE4
:101D380040F0C481DDE90632134314BF4FF0010CB3
:101D48004FF0000C58460799B9F1460F4FEAC123E6
:101D5800069908BF4FF06609CA0243EA51534BEA95
:101D680002010C91C11719430D91DDE90C010143E2
:101D7800CDE9122300F01582BCF1000F40F0D581A7
:101D8800129B05210493139BABF2FE3B43F00043E7
:101D98000593DDE90423CDE9122300231A461BF13C
:101DA800020FC0F2CB811BB1DDE90401CDE91201BC
:101DB800DDE91231BBF1000F00F3DB811399129BAF
:101DC800CBF104000BF11C0B01FA0BFBA0F1200C6A
:101DD800C34021FA0CFC43EA0B0343EA0C03C1405D
:101DE800CDE9123109F0DF03472B40F0E181D01C27
:101DF80002DB974280F2D881A9F10209002F5FFA2D
:101E080089F900DD013F9DF86030990600F1D08125
:101E1800002FD4BF00230123B9F1660F0E9340F0C1
:101E2800C981BB1840F1C7814FF0000AC7E1A9F189
:101E38005803202B3FF6FFAE01A252F823F000BF53
:101E48005D2000003F1C00003F1C00003F1C0000FC
:101E58003F1C00003F1C00003F1C00003F1C00000E
:101E68003F1C0000051D00003F1C0000F91E00007B
:101E7800FD1F0000051D0000051D0000051D0000D8
:101E88003F1C0000FD1F00003F1C00003F1C00001D
:101E98003F1C00003F1C0000932000005D20000054
:101EA800612000003F1C00003F1C0000D31E000002
:101EB8003F1C00005D2000003F1C00003F1C00008C
:101EC8005D2000004146484668E4002FDDF8589040
:101ED8000ADB394648460AF05DF9002609EB000A94
:101EE800B9F1000F0CD1A6E648460AF04CF9F4E720
:101EF8000026169B0DF1750A8DF874300DF17409E2
:101F0800AAEB090206B101329DF86200C30640F14E
:101F18004C820232199940060A44089B44BF1A9918
:101F28005218002B25DD9B1A9DF860205107C2F33B
:101F3800800B00F14C82570640F14582002E00F0DC
:101F48004482089341463046039B98470028C0F2D4
:101F580037825E463027089B0135089303EB050B53
:101F6800089BABEB0305002B03F1FF33089300F349
:101F780020823EB141463046039B98470028C0F274
:101F88001F8201359DF86220560640F17E829DF938
:101F98006120002AC0F21D82A5EB090599F800000E
:101FA8004F46A0F13002092A05EB090B09F1010996
:101FB80040F23F829DF86220199E900608D406EBF5
:101FC8000B09002EA9EB060B06F1FF3600F3388249
:101FD80038782E280BD14146039B98470028C0F239
:101FE800EF81002E0BF1010B00F332820137ABEBCE
:101FF800070B38E230072BD416F0100618BF20263E
:10200800DDE91623002A73F1000105DA2D26524274
:1020180063EB4303CDE91623DDE916010DF18D03CA
:10202800009318AA1DAB09F04BFA8146002F0DF159
:102038008D030BDB9DF86010A3EB09026FF386118B
:1020480097428DF8601001D9BF1A19979A4647E749
:102058002B26D5E70026DFE71698002800F09F8199
:102068000DF18D03009300211DAB18AA09F028FA81
:10207800BDF86230814603F0EF0343F4F04343F0C8
:1020880010030026ADF86230D0E7169B07293FF60B
:10209800D2ADDFE801F00D04060D08080D0D1D7026
:1020A800C9E51D80C7E52846E917C3E90001C2E56F
:1020B8001D60C0E52D262FE62B262DE640F2FF7386
:1020C8009B452DD1DDE906231343A9F1410918D118
:1020D800B9F1190F95BF44F6496346F66963ADF83F
:1020E8007430ADF8743094BF462366238DF876308B
:1020F8009DF860300DF1770A6FF386138DF8603024
:10210800FCE6B9F1190F95BF44F24E1346F26E136F
:10211800ADF87430ADF8743094BF4E236E23E5E704
:102128004FF0000C0EE60BF1FF3B92185B41002AC2
:1021380073F10001F7DACDE9122321E6049B059833
:102148005B0843EAC0734008B0F1333FDC46CDE991
:1021580004300BF1010BF1D2A3FB01AB4843CDE9ED
:1021680004AB059B0CF1020BC3180593013A01233C
:1021780015E6023341F1000112A8CDE912310E92A1
:1021880009F068F9DDE912010E9A0BF1FF3B013203
:1021980000184941002871F100030BF1FF3BF7DA01
:1021A80004E60022934609E64FF06609BF1A2AE6BC
:1021B800002331E67B1C102BA8BF10239A46102160
:1021C800002011914FF00061CDE91401DDE91410F0
:1021D8000AF1FF3ABAF1FF3F1FD1129BCB180A93BD
:1021E800139B6FF0704140EB03034FF0FF300B93EC
:1021F800DDE90AAB594508BF50451AD35046594640
:10220800CDE91201B9F1660F53D1002A20DC302341
:102218000DF1750A8DF874302BE0490841EAC07158
:102228004008CDE9141014A80F9209F013F90F9A79
:10223800CCE70A9B0F920B9A5B0843EAC2735108DA
:1022480012A8CDE9123109F005F90F9A0132D9E740
:102258000DF1740A1199002909DD11A912A80F922C
:1022680009F017F90F9A0AF8010B013AF2D11992FD
:1022780000229DF86010880601D4002F3FDD5346E8
:102288002E2103F8011B92B1002F76DD5142B9428D
:10229800A8BF394600291991A7EB0107D4BF00212F
:1022A80001219DF8620061F345108DF862009A469D
:1022B80020E011A912A80F9209F0EBF80F9A9DF8E7
:1022C8006030302818BF02F1FF3299068DF874008B
:1022D80001D4002F53DD2E238DF875300DF17603D0
:1022E800E5E711A912A80F9209F0D3F80F9A0AF896
:1022F800010B013F002F02DD11990029F1DC0E9B33
:10230800002B3FD11A9709F0DF01452923D1002A74
:10231800B4BF2D212B215046B8BF5242632A00F882
:10232800029B8AF801100ADD642792FBF7F107FB8C
:10233800112201F1300C0AF103008AF802C00A27C1
:1023480092FBF7F1824607FB112201F1300C303283
:102358000AF802CB4270199A002A1EDC1A9A002A3F
:10236800D4BF002201229DF8621062F38611002278
:102378008DF862108AF80020C0E59A46BFE70DF193
:10238800750ABCE700211A9150461AF8011D302938
:10239800FAD02E2918BF8246B5E70122E3E7DFF815
:1023A8003CA10646AAF10509AAE5070748BF01327C
:1023B800B0E541463846039B98470028BFF6D0ADA4
:1023C80025B0BDE8F08F2027C7E53027C5E508937D
:1023D800CFE5A5EB090B4E460BEB090519F8010BE8
:1023E800702820D11A9A02EB0509A9EB0502002AE8
:1023F80043DC534632464146039809F0ACF80028BE
:10240800DEDB089B2844034405469A46AAEB0503ED
:10241800002B7FF710AC41462020039B98470028EB
:10242800CEDB0135F2E74146039B98470028D2DA14
:10243800C6E74146039B98470028BFF6AFADBFE704
:1024480041463020039B98470028BFF6BAADB7E74E
:1024580041463020039B9847013EBFE54146039B18
:1024680098470028ACDB3E460BEB070517F8010B35
:10247800A0F13002092AF1D9B4E741463020039B84
:10248800984700289CDB0135AFE7D10601D4120735
:1024980006D541463020039B9847002890DB01353C
:1024A8009DF86220D30607D541469DF86300039B3B
:1024B8009847002884DB0135199E2E44721B002A98
:1024C80002DC53464A4696E741463020039B98472C
:1024D8000028FFF675AF0135F0E700BFAFEE00004A
:1024E80008B54FF02002EFF3118382F31288BFF38F
:1024F8006F8F01F093FF034808F02BFC01F0A8FB55
:10250800FCE700BFB0EE0000094B0A4900F01F02CB
:102518004009012808BF0B4603EB8203D3F80022C9
:1025280022F0E04242F04052C3F80022704700BF58
:10253800002584500028845070B54FF02003EFF335
:10254800118683F31288BFF36F8F01240C4B0D4D56
:10255800C3F8004502230020C5F8D036FFF7D4FFA2
:102568002046FFF7D1FFC5F80447C5F80449C5F868
:10257800004B86F31188BFF36F8F002070BD00BF3A
:10258800001000500040005048B1054B1A68054B38
:10259800B2FBF3F2044B504343F001031847704772
:1025A8006C02002040420F0060E4000084B004ABDD
:1025B80003E907009DF80430062B07D10122044BDC
:1025C800C3F80025BFF34F8F20BFFDE704B0704765
:1025D8000040005030B5002289B00F490F480BF079
:1025E80037FB002200230024CDE906230E230C4DDF
:1025F800CDE903344FF440722846CDE90144094B34
:102608000949009406F0CEFF084928460BF00DF85A
:10261800204609B030BD00BF39260000B8040020AC
:10262800F00400201D2A0000E0160020DDEE000066
:10263800014807F04FB900BF1C04002000230C4AD2
:1026480010B513700B4A4FF4004013600A4B0B4A45
:102658001A6000F0B5FC00F057FA094808F09DFF31
:10266800BDE8104008234822064907480AF093BFEE
:102678008B140020540A00203C010020E1B5000022
:102688005C0A0020204B0020640A002070B5104B23
:10269800D3E8EF5F6A1CC3E8E12F0029F8D12DB910
:1026A8000C4C0D4E361B3611B54200DB70BD237B3A
:1026B80053B123689B690BB120469847636804228D
:1026C8002046196800F012FA01351034ECE700BF13
:1026D800580A0020F0E3000000E4000010B54FF0B5
:1026E8002003EFF3118483F31288BFF36F8F04483C
:1026F80008F063FF84F31188BFF36F8F10BD00BF2C
:102708005C0A002010B5044C227812B9034807F07F
:10271800E1F80123237010BD8A1400201C04002056
:10272800084BD3E8EF2F0132C3E8E12F0029F8D195
:10273800054BD3E8EF2F013AC3E8E12F0029F8D180
:10274800704700BF540A0020500A002000200246AB
:10275800034BD3E8EF0FC3E8E12F0029F9D1704705
:10276800540A0020F8B5FFF7F1FF00260746094C88
:10277800094D2D1B2D11AE4200DBF8BD63685B7956
:102788002BB123681B6913B1394620469847013697
:102798001034F0E7F0E3000000E40000144B37B514
:1027A8009842044602D3134B98421CD300220023BC
:1027B800114801A906F096FE0546B8B90122019B09
:1027C800D3E8EF1FC3E8E02F0028F9D1019821468C
:1027D8004122043009F0C4FC7E23019C84F8453072
:1027E80084F846500434204603B030BD034CFAE761
:1027F80078DF0000A8030100640A0020E5EE00006D
:1028080050B1064B984206D303F5107398422CBF7B
:102818000020012070470020704700BF204B002097
:10282800414B2DE9F74F1B78044603B9A0B1FFF7D8
:1028380055FF054618B19CB1284608F0D5FF2CB9BC
:102848003A4B1B68002B01DDFFF78CFF384808F076
:10285800B2FE041E18BF0124204603B0BDE8F08F65
:10286800344BD3E8EF2F013AC3E8E12F0029F8D120
:10287800314B1B78BBB92B7ADB0714D408F0C3FFA4
:102888008046284608F08EFF0146404608F0A8FE1C
:1028980006462A4B2A4ADFF8BCA09B1ADFF8B8B0D4
:1028A8004FEAD30936B9274E274F4FF00008BF1B10
:1028B8003F1136E0B6FA86F7C7F11F0739462846B2
:1028C80008F073FF214B0246984202D3204B9842EE
:1028D80016D31046FFF794FF90B9524510D0698976
:1028E800C1F3891100F0F4F84FEA891343F00103AA
:1028F8000246ADF8003039464346584608F0CAFE4D
:10290800012303FA07F726EA0706CBE773685B7922
:1029180023B13368294630465B68984708F10108B7
:102928001036B845F2DB87E78A140020540A0020E5
:102938005C0A0020500A00208B14002090E300005D
:1029480028E30000F0E3000000E4000078DF000066
:10295800A8030100E5EE0000FFEE0000264B37B5A6
:102968001B68418104469847E0604FF02003EFF36D
:10297800118583F31288BFF36F8F2048214608F032
:1029880010FE85F31188BFF36F8F1D4BD3E8EF2F2F
:10299800511CC3E8E01F0028F8D11A4B1B7883B1FB
:1029A8004FF02003EFF3118483F31288BFF36F8F86
:1029B8000020FFF735FF84F31188BFF36F8F03B052
:1029C80030BD114B1B68002BF9D052B900220023EF
:1029D8000E48CDE900234FF40042002307F062FEC1
:1029E800EDE70A2AEBD109480BF03EF9084803B095
:1029F800BDE8304006F06EBF3C0100205C0A0020B4
:102A0800500A00208B140020800A0020B8040020FF
:102A18001C04002010B5FFF739FE07F00FFC0C4B23
:102A2800186030B10B4B1B68092B02DD0A4806F011
:102A380051FF094C0020FFF7F3FE0028FAD14FF0B0
:102A4800FF324FF0FF33204606F06AFFF2E700BF7F
:102A5800800A0020500A00201C040020F8B50E4F00
:102A68003D7875B9FFF712FE0C4C0D4E361B36112A
:102A7800B54207DB0020FFF7D3FE0028FAD1012377
:102A88003B70F8BD63685B791BB1236820465B69BE
:102A9800984701351034EBE78B140020F0E3000071
:102AA80000E4000007B504380190D0E8EF3F5A1E53
:102AB800C0E8E12F0029F8D1012B03D1034801A96F
:102AC8000AF084FD03B05DF804FB00BF640A00202F
:102AD800044A054B9B1AB1EBD30F34BF52F83100AF
:102AE8000020704728E30000F0E30000054B42682F
:102AF800C31A1B11013313710122436819605A71FB
:102B0800FFF700BEF0E30000202302491A460248FE
:102B18000AF041BD604D0020840A0020002337B52B
:102B2800094D01930120FFF77BFE0446FFF7F8FDEE
:102B380000220023284601A906F0D4FC08B1002C85
:102B4800F0D1019803B030BD840A0020002307B5F6
:102B5800002201930648002301A906F0C3FC10B126
:102B6800FFF7DCFF0190019803B05DF804FB00BF9C
:102B7800840A0020F0B5037A457A85B00190D80719
:102B88004FEA15151CD4DDB10024264631460198BC
:102B980008F00BFE0746FFF733FE70B134B9019B0E
:102BA8002946186908F01CFD044648B124FA06F3C2
:102BB800D90702D53846FFF775FF0136AE42E5D38F
:102BC800019B1A7A920704D55B69084C0393039B0F
:102BD8002BB9064801A90AF0F9FC05B0F0BD1D683B
:102BE800204603A90AF0F2FC0395F0E7840A0020C6
:102BF8000EB403B503AB53F8042B01460448019304
:102C0800FEF7B8FD02B05DF804EB03B0704700BFF3
:102C1800B7BB00002DE9F04F1F4687B001F0010354
:102C28000592064688469DF84090BDF948A001F0F7
:102C3800020B049301F0080508F053FD0246002832
:102C480044D030463849FFF7D3FF0446BBF1000FA4
:102C580008D018F0440F3BD13A4630463349FFF7C5
:102C6800C7FF0444049B53B1314B304653F8292025
:102C7800304B3149002A08BF1A46FFF7B9FF3DB16A
:102C88002E4B304653F829202D49FFF7B1FF054652
:102C9800BAF1000F16DB059B002B43D0012303FA82
:102CA80009F9284B19F0100F274F18BF1F46514636
:102CB8009DF84400FFF70CFF394602463046FFF7FF
:102CC80097FF0544281907B0BDE8F08F0446BDE713
:102CD8001E4B18680028C4D01D4B4FF4616C19684E
:102CE8004FF03C0EB7FBF1F7B7FBF0F1B1FBFCF28C
:102CF80000FB11770CFB121C4FF47A714F43B7FBA2
:102D0800F0F800FB1877BCFBFEF34F43B7FBF0F07D
:102D18000EFB13C1CDE90180009130460D49FFF744
:102D280067FF9EE7084FC2E751EF000055EF00002C
:102D380094E4000043EF000021FD0000A8E4000037
:102D48007AEF00004DEF000048EF0000A00A0020D5
:102D5800A40A00205EEF000038B50C46E1070546DE
:102D680003D5084A0849FFF743FFE20608D4A3063B
:102D78002846BDE838404CBF04490549FFF738BF2D
:102D880038BD00BF43EF000021FD000053ED0000F7
:102D980052ED00002DE9F0471D46089B1746DA065C
:102DA80004460E4605D499064CBF2A492A49FFF71E
:102DB8001FFF4FF00008DFF8A890A8452ADB002580
:102DC800DFF8A080DFF8A090DFF894A0BD422FD2F2
:102DD80049462046725DFFF70BFF0135102D20D1C3
:102DE80020461E49FFF704FF0025DFF87480DFF84E
:102DF8007C90AF4228D9725D4946A2F120035F2B2F
:102E080028BF2E222046FFF7F3FE0135102D14D1DE
:102E1800BDE8F08749462046FFF7EAFE08F10108B9
:102E2800CBE76A07D2D151462046FFF7E1FECDE74E
:102E380041462046FFF7DCFECFE76B07D9D1414674
:102E48002046FFF7D5FED4E741462046FFF7D0FEDF
:102E5800DBE700BF53ED000052ED000086EF0000F5
:102E68007A0201007802010080EF000088EF00007C
:102E78002DE9F0478B7A174613F0070805460E46EA
:102E88000A7A8AB021D0D2434989C3F3C203C1F375
:102E98008911CDE900830291F368394602F00102F5
:102EA800FFF7B8FE8146347AE44314F001040ED0EB
:102EB8002946304608F011FDB8F1000F2BD04246E4
:102EC80039462846FFF748FF25E0C146EBE7B8F149
:102ED800000F26D12746EB6806AA069330463B46E4
:102EE800A96808F0E6FC069A6B681A603AB1AB6804
:102EF800134413F8014CA4F10A035C425C412846D0
:102F080008F048FE069B1F44002BE4D11CB128465C
:102F18001349FFF76DFE284608F03CFE0AB0BDE8ED
:102F2800F087304608F06FFC0E4902462846FFF746
:102F38005FFE4FF0100A05AA2346304606A9CDF8D1
:102F480014A008F0B6FC059A002AB8D04B462846CB
:102F5800009706A9FFF71EFF059B1C44EBE700BF7F
:102F68008BEF000021FD000042F20F7373B58B4216
:102F780028BF0B4605680446052168460D4A07F038
:102F8800F5FE0646636828460B225B680A4908F086
:102F980097FC63683246694628465B6808F090FCEF
:102FA80063681B2228465B68044908F089FC02B064
:102FB80070BD00BF92F00000C9EF0000ADEF000047
:102FC80001230021074A10B5074C1360A04204D81A
:102FD80001B11360054B186010BD012140085B006A
:102FE800F4E700BFA40A002040420F00A00A002016
:102FF800F8B50D460446064F4618B44201D1284696
:10300800F8BD386814F8011B83685B689847F4E7D3
:10301800BC0A0020014B024A1A607047BC0A002013
:1030280074E000000122024B02481A7008F0B2BD99
:103038008C140020D8E400000148FFF795BF00BFBA
:10304800D8E4000010B50C46084608F0A2FB21465B
:1030580004480F22FFF70CFF2046BDE8104008F097
:10306800C3BB00BFD8E40000014B1970704700BF14
:10307800000007200020014B18707047000007204F
:10308800014902480AF01CBCC80A0020700500204B
:10309800014B186809F0B3BFD80A00200D4B13B5CF
:1030A8001868002382680093194614681A46A047D6
:1030B800014660B1084B094A0948D21AD208920160
:1030C80042F0010202B0BDE8104008F0B6BA02B002
:1030D80010BD00BFC40A002028E30000D0E30000B0
:1030E800EFEF00002DE9F041724B86B00493062300
:1030F8008DF814300023074600930D466FF00F0338
:103108004FF400626C496D4806F028FD6C496B4825
:103118000AF08BFA6B496C480AF0C9FB04A805F061
:10312800C3FD044670B1694A694B0146D21AD208F8
:103138009201684842F0010208F07FFA204606B082
:10314800BDE8F081644805F08FFD044648B15F4A48
:103158005F4B0146D21AD2089201604842F0010240
:10316800EAE75F495F4803AA09F0D4FC044648B17E
:10317800564A574B0146D21AD20892015A4842F091
:103188000102D9E7039B9A685AB938604F49504BF6
:103198005648C91AC908890141F0010108F040FAE6
:1031A800CCE70C333B60002BF0D0514806F016F802
:1031B800DFF87481C8F800004E4806F00FF84E4E4C
:1031C800D8F80020306062B94049414B4B48C91AD1
:1031D800C908890141F0010108F022FA6FF01204D0
:1031E800ACE740B939493A4B4548C91AC908890179
:1031F80041F00101F0E7836822465B68414998473E
:103208003068836801211B699847044640B12F49FB
:103218002F4B3D48C91AC908890141F00101BDE792
:10322800B4200AF09BFE064618B1B422214608F0E5
:10323800F0FF364B98461E6066B92449244B344843
:10324800C91AC908890141F0010108F0E9F96FF0CC
:103258000B0473E7B4200AF081FE064618B1B422C5
:10326800002108F0D6FFC8F8046046B91749184B82
:103278002848C91AC908890141F00101E5E73A68F7
:10328800254BD8F800005A61244A10215A600422BC
:1032980018609A6038681A620022D86220489984B7
:1032A800D8619E61AA610222AA621E4A99812A6295
:1032B800EB6243E7018D0000E01900207005002053
:1032C8000DF0000099300000C80A0020D0E300008B
:1032D80028E3000018F00000700100203BF0000017
:1032E80066F0000070F0000078F0000095F0000033
:1032F800D7FE0000C1F00000C00A0020C7F000009F
:10330800EAF00000893000000DF10000D80A002022
:1033180042F100006BF100004001002000FC072092
:1033280000F80720E8E40000C40A00202DE9FF4166
:103338000D46264C064621682846174608F033FFF6
:10334800A046B8B12846E16C08F02DFF88B1204AA4
:10335800204C2846A41AFFF721FAE408A40144F0F7
:103368000104014622461C4804B0BDE8F04108F0BB
:1033780064B901204C244443184B04F1080002931B
:10338800444463683146CDE900732A464FF0FF3361
:10339800404405F04DFD064690B10D4B0D4C2846B6
:1033A800E41AFFF7FBF9E408A40144F0010401461C
:1033B800234632460A4804B0BDE8F04108F051B946
:1033C800012384F8483004B0BDE8F081E00A002009
:1033D80028E30000D8E30000A2F10000EFBB0000E2
:1033E800CCF1000037B5194D19492846FFF77AFE88
:1033F800044668B1174A184B0146D21AD2089201FE
:10340800164842F0010208F018F9204603B030BD12
:10341800134C4FF47C42204612490AF040F80094BD
:103428002B68114A0A49114805F0AEFD044648B117
:10343800084A094B0146D21AD20892010C4842F0B8
:103448000102E0E701220B4B1A70DEE7780B00203F
:1034580010060020D8E3000028E30000FDF100007A
:103468001C0C002000040720353300007C0B0020D2
:1034780025F200008E14002038B5134B02461B7845
:10348800FBB9124C2368254693B1E36CBBB1104AD3
:10349800104CA41AFFF782F9E408A40144F00104CF
:1034A800014622460C4808F0C8F86FF00B0038BDFA
:1034B80018464C234343EC18EA506160F7E70120B3
:1034C800F7E76FF07600F2E78E140020E00A00209C
:1034D80028E30000D8E300003FF200004C22034B31
:1034E80002FB003090F84800704700BFE00A002057
:1034F80037B54C240B4601214443CDE90021054D45
:1035080028190834D0E90B12281905F07FFC03B0FC
:1035180030BD00BFE00A00202DE9F84305464FF012
:103528002003EFF3118683F31288BFF36F8F104BDC
:103538001C68002C38BF00249CB14FF00C090D4FBB
:10354800DFF83480D4E90132002D08BF13462BB1CF
:1035580098F8142009FB02F2B85C98472468002CFC
:10356800F0D186F31188BFF36F8FBDE8F88300BFF1
:103578002C0C0020380C00200C14002070B5084DCD
:10358800084E2C68013C002C02DA00232B6070BD29
:1035980056F82400012108F046FB013CF3E700BF80
:1035A800280C0020AC030020012200F01F039A40E1
:1035B800084B400903EB8000D0E8EF3F43EA0201E3
:1035C800C0E8EC1FBCF1000FF6D11A4214BF01206D
:1035D80000207047440C0020012230B51A4B85B0FA
:1035E8001D7D05F01F039A40D043184B690903EB72
:1035F8008103D3E8EF1F01EA0004C3E8EC4FBCF1F4
:10360800000FF6D1114217D00C22114C01AB02FB6E
:10361800054207CA83E807000E4A7AB193E8070013
:1036280007F0B0FF0020FFF777FF0C2300226B4361
:10363800E118E250C1E9012205B030BD82F31188DA
:10364800BFF36F8FEEE700BF0C140020340C00208E
:10365800380C00208DB500002DE9F04F6F4B064661
:103668001C7D8DB02046FFF79FFFDFF8D89160B929
:103678000C2505FB049504AF32462146384608F070
:1036880002FB97E8070085E807000C23634319F855
:10369800035009EB0302002D00F0A180731C0ED02B
:1036A8004FF40045002197685D480023E5FB0701BA
:1036B8005C4AFDF7BBF90121301A0AF07CFA0C23A9
:1036C800634319F80330DFF88081012B09AF19D063
:1036D800D8E8EF3F5A1EC8E8E12F0029F8D1012B9E
:1036E80010D1384605F06CFD1C264F4B00229A4637
:1036F800464309981C3EDFF854B11A600644099BFA
:103708009E422ED206F0F0FA0120FFF705FF0121B4
:1037180004F01F029140454A630902EB8303D3E892
:10372800EF2F0A43C3E8E02F0028F8D10C2303FB4E
:1037380004993F4B99E8070087E807000BB1FEF7AB
:1037480035FFD8E8EF3F5A1CC8E8E12F0029F8D127
:103758000BB9FFF713FFFFF73FFF012506F09EFCAB
:103768003DE0304608F04AFA002854D1304608F0C7
:1037780053FA00284FD1304608F047FA054600288A
:1037880049D10146304608F04EFA10F1860F42D072
:1037980020F0200278323ED0002835DA254A264F1C
:1037A80003900120BF1A366800F052F8FF08BF01E5
:1037B80047F001070246039B31462048ADF80070E8
:1037C80007F068FFFFF7DAFE0C23634309F803509C
:1037D800D8E8EF3F0133C8E8E23F002AF8D10123D7
:1037E800620904F01F0403FA04F4E443144B03EBE6
:1037F8008203D3E8EF2F2240C3E8E12F0029F8D154
:1038080028460DB0BDE8F08FDAF800304BF8236099
:103818000133CAF800301C3E71E700BF0C140020C9
:103828003F420F0040420F00280C0020340C0020BB
:10383800B525000028E30000C0E3000073F2000093
:10384800440C0020380C0020C8010020AC030020E4
:1038580003289ABF024B53F820000248704700BF64
:103868000CE5000054ED00002DE9F04F0027036837
:103878009DB003934368DFF8B8A104938368039C61
:103888000593C36802910693036907934369DDE9C9
:1038980006E2089383690993C369DDE908CB984672
:1038A8000A93059B0193049B0093029B019EDD599B
:1038B8000CAB2DBADD515AF8043B043705EB03096C
:1038C8004FEAF22585EAB21585EA72654D442BEA7E
:1038D800020302EA0C0983EA09032B444344DDE9A5
:1038E80000154FEA74384D4088EAB408254001EACB
:1038F800060985EA090588EAB458A844402F03EB6D
:103908000E054344B646D84640F081804FF0100A71
:1039180046490B9151460AF1010A1CAE0AF00F07FD
:1039280006EB870757F8406C01F00F094FEAB648D5
:1039380001F10E070931029688EAF61801F00F0125
:103948001CAE06EB890906EB810107F00F0751F859
:10395800401C06EB870759F8406C57F8407C314407
:10396800029E4FEAF74E88EAD6088EEA774E8EEA2C
:10397800972E414471440B9E49F8401C4FEAF529A3
:1039880005EA020889EAB5192CEA050756F804EB96
:1039980087EA080789EA75694F4477440B96009EC1
:1039A8003944594404EA060E84EA060B019E4FEA9C
:1039B80073370E4487EAB3070BEA030B8BEA0E0B47
:1039C800B04687EAB357009E5F44BAF1400FE3461A
:1039D8003944019623D1039E0E4404990660194484
:1039E800059B4160234400998360069B0B44C36098
:1039F800079B43440361089B2B444361099B134481
:103A080083610A9B6344C3611DB0BDE8F08F0099D0
:103A1800E346CDE9004194461C462A4645E79446CC
:103A280000942A461C4645460B4673E75CE50000B1
:103A38001CE5000010B50446C8B17022002108F04A
:103A480034F90B4B0B4A0C49C4E900230B4B0C48C7
:103A5800C4E902130B4BC4E9040301200A4BA36118
:103A680003F17453A3F52303A3F69243E36110BD56
:103A780085AE67BB67E6096A72F36E3C3AF54FA5F7
:103A88007F520E518C68059BABD9831F014806F005
:103A980081BF00BF1CE6000008B508B34368042BCB
:103AA80007D0082B13D0F3B1006805F099FE002069
:103AB8000CE000220368D3E8EF1F012903D1C3E813
:103AC800E02F0028F7D1094808BF104608BD036851
:103AD80000201B78064A03F5807342F82300F5E7B7
:103AE8006FF4E040F2E70348F0E700BFE98FFFFF1B
:103AF80000000350EA8FFFFF10B5044618B90D4BBC
:103B08000D485B689847616808290DD031F00403B7
:103B18000AD011F0020108D02146084809F056FDE4
:103B2800002323600023636010BD1422206808F07E
:103B380070FBF7E72C030020BBF20000480C0020C4
:103B480010B5044618B9164B16485B689847636861
:103B5800042B23D0082B21D0CBB92368BBB94FF055
:103B6800FF324FF0FF3321460F4805F0BBFC08B980
:103B780023681BB90A4B0D485B689847142200213B
:103B8800206808F046FB636843F00203636020681E
:103B980009F059FD636843F00103636010BD00BF7D
:103BA8002C030020BBF20000480C0020E1F20000CA
:103BB80008B540B34368042B0BD0082B16D003B3C9
:103BC80000684FF0FF324FF0FF3305F08BFD58B11E
:103BD80015E001220368D3E8EF1F002903D1C3E8E9
:103BE800E02F0028F7D10AD1002008BD0368074A52
:103BF8001B7803F5807352F82330002BF4D0044867
:103C0800F3E70448F1E76FF4E040EEE70000035003
:103C1800E98FFFFFEA8FFFFF08B50649402314220A
:103C2800054809F0B8FCBDE808400449044806F016
:103C38000FBF00BF640C0020480C002034E60000D1
:103C480024E60000014910220A60704710ED00E0E8
:103C580072B6404080F31188BFF36F8FBFF34F8F68
:103C680030BF62B6BFF36F8F704700BF72B649406E
:103C780081F3118820BF80F3118862B6704700BFB6
:103C880073B506460C4601B3134B144D1448ED1A90
:103C9800ED08AD0145F00105ADF80050D1E901236B
:103CA800096807F0F7FCADF80050D4E90423E1688F
:103CB8000C4807F0EFFC2A46E1690B4807F0BDFC09
:103CC8002A46A169094807F0B8FC2146304602B0E7
:103CD800BDE8704005F0AEBA28E30000B8E3000084
:103CE8000EF300003DF300006CF300007BF30000CE
:103CF80043B2002B08DB012200F01F0002FA00F09B
:103D0800024A5B0942F82300704700BF00E100E067
:103D180043B2002B0DDB012200F01F0002FA00F075
:103D28005B09044A203342F82300BFF34F8FBFF3E7
:103D38006F8F704700E100E0054B420953F82220DD
:103D4800012300F01F0003FA00F01040704700BF85
:103D580000E100E043B2002B01F10101ACBF03F127
:103D68006043064B4FEA4111C9B2ABBF03F561434B
:103D780000F00F0083F800131954704714ED00E0A9
:103D880030BFFFF7FDBF00BF0B4A08B50B4B22F051
:103D98007F029A60BFF34F8FBFF36F8FD3F88820ED
:103DA80022F47002C3F8882005F0EAFA06F0C0FA97
:103DB80000F0F8FA05F0EEFA0000000000ED00E06F
:103DC800094A0A49936809689867D96708494B6896
:103DD80043F080534B60002383F31188BFF36F8F48
:103DE8009368D86F704700BF0C140020D4E8000017
:103DF80000ED00E013498A684FF030001044EFF3FB
:103E0800098C80E8F01F202080F31288BFF36F8FA1
:103E18000D4F4FF00066CA698A603E60906F0023BC
:103E2800936780F3118802F1300090E8F01F8CF35B
:103E3800098802F1000004B508F06CF9BDE80440F7
:103E4800704700000C14002004ED00E01EF0040F81
:103E58000CBFEFF30880EFF30980816911F8021CA9
:103E68000229FFD001B508F046F901BD42F8203C0F
:103E7800009B0B4942F81C3C019B21F0010142F8D0
:103E8800183C029B42F8081C42F8143C4FF080731F
:103E980042F8043C0023203A02658367704700BF5C
:103EA800E5AE0000084B9860836E83F30B881046DC
:103EB80081F30988002163B681F31188BFF36F8FFE
:103EC8000022002307F00AF80C14002001B572B68E
:103ED8000B4A906900281EBF0021916109F0ACFBD4
:103EE80062B6EFF30580A0F110004FEAC000054963
:103EF800014409C99847BDE8014003490847000043
:103F08000C14002000E10000153F0000044B9968E4
:103F1800D869884203D003494FF080520A6070473D
:103F28000C14002004ED00E070B5284B284C294DF6
:103F3800E41AE408A40144F001063146264807F0D3
:103F48006FFBAA6A930103D53146244807F068FB42
:103F5800AB6ADD0104D5224844F0010107F060FB9B
:103F68001C4DAE6A16F4801605D01E4844F00101B7
:103F780007F056FB0226AB6A180304D51A4844F02A
:103F8800010107F04DFB134DAA6A510304D51748E8
:103F980044F0010107F044FBAB6A9A0304D51448C6
:103FA80044F0010107F03CFB0A4DAB6ADB0304D582
:103FB800104844F0010107F033FBAB6A30466FEA62
:103FC80003436FEA1343AB6270BD00BF28E30000F0
:103FD800B8E3000000ED00E0A9F30000C1F3000021
:103FE800D4F30000EEF3000018F4000036F40000EB
:103FF8005BF4000075F400002DE9F041284B294CD2
:10400800294DE41AE408A40144F0010807460E46C5
:104018002648414607F004FBAA6AD00603D5414664
:10402800234807F0FDFAAB6A190704D5214844F084
:10403800010107F0F5FA1C4DAB6A9A0712D544F056
:10404800010841461C4807F0EBFA696BAB6A1B068E
:1040580008D54246194807F0F0FA1FB1AB6A23F0B9
:104068008003AB62104DAA6AD00704D5144844F007
:10407800010107F0D5FAAB6A990604D5114844F056
:10408800010107F0CDFA0020074B9A6AD20658BF03
:104098009A6A9A6A42F0FF029A623070BDE8F0812B
:1040A80028E30000B8E3000000ED00E0A0F4000001
:1040B800B6F40000E9F40000FCF4000014F5000078
:1040C8002AF5000049F500002DE9F0412A4B2B4C58
:1040D8002B4DE41AE408A40144F0010807460E46F3
:1040E8002848414607F09CFAAA6AD10403D54146FC
:1040F800254807F095FAAB6A1A0504D5234844F019
:10410800010107F08DFA1E4DAB6A9B0512D544F0EC
:10411800010841461E4807F083FAA96BAB6A1804E8
:1041280008D542461B4807F088FA1FB1AB6A23F44A
:104138000043AB62124DAB6A590504D5164844F0EA
:10414800010107F06DFAAB6ADA050DD5134844F0A2
:10415800010107F065FA0020094A936A43F47F4396
:1041680093623070BDE8F081AB6A9B04F3D50C48CC
:1041780044F00101EDE700BF28E30000B8E30000C8
:1041880000ED00E078F500008EF50000E9F400008D
:104198009FF50000B8F50000CDF50000E8F5000037
:1041A80049F500002DE9F041644B0F465D68002693
:1041B8008AB0C5F3080486F31188BFF36F8F02F045
:1041C8007F43B3F17F4F0DD102F00C03082B0BD1C5
:1041D8005B495C4B5C48C91AC908890141F0010177
:1041E80007F01EFA374603E0120701D407460126F6
:1041F80000238DF80730E31E092B00F28680DFE8E4
:1042080003F00573777084848484847B4FF00008FE
:104218004C4A4B4D4D48AD1AED08AD0145F001052E
:10422800294607F0FDF9454B8DF80780DC6A14F044
:10423800020405D02946464807F0F2F9002406E0B2
:10424800DA6A002A1DDA2946424807F0E9F99DF89A
:1042580007309BB92022394602A807F0CFFF099BF7
:10426800002E66D0C3F3080222B96FEA53236FEA1F
:1042780043230993204602A9FFF702FD0AB0BDE8CF
:10428800F081DB6A5B00E2D52946334807F0C8F9BC
:10429800BB6933F8022C4DF602739A420CD003F135
:1042A800604303F626631B786BB101200DF107010B
:1042B800FFF7A2FE0446CAE72A463968274807F0EE
:1042C800BCF93C68C3E7264B1B782BB101200DF1E4
:1042D8000701FFF7F9FEEDE7224B1B889BB2002B85
:1042E800B5D0FFF721FEE5E700200DF10701DFE774
:1042F80000200DF10701ECE71149124B1A48C91AC1
:10430800C908890141F0010196E70E4A0C4B17488C
:104318009B1ADB0815F4F87F4FEA8313144943F01E
:10432800010318BF0146A4F11002124807F099F9D9
:1043380084E723F4FF7323F001039AE700ED00E01C
:10434800B8E3000028E3000000F600002BF60000A8
:1043580042F6000063F6000071F6000090F60000D7
:1043680029ED00E02AED00E0ACF60000E5F60000DB
:10437800D0F60000FEF60000044B5A6942F0100225
:104388005A615A6942F480625A61704700ED00E050
:10439800EFF30880EFF3098101B57246FFF702FFDA
:1043A80001BD00BF002320210348C2180133452B5B
:1043B80082F80013F9D1704700E100E0002080F393
:1043C8001488BFF36F8F002080F30A8880F30B886E
:1043D80009F0C8FD00200E490860BFF34F8F0D4853
:1043E80080F3088800F03CF8202080F311880A4800
:1043F8004FF40061401880F30988EFF3148002211C
:10440800084380F31488BFF36F8FFFF7BDFC0000EB
:1044180094ED00E0E02D0020202F0020BFF34F8F07
:104428000549064BCA6802F4E0621343CB60BFF348
:104438004F8F00BFFDE700BF00ED00E00400FA0564
:1044480000231846054A1168C1F307218B4200D1A1
:104458007047936010610133F8E700BF90ED00E00A
:1044680010B572B6002484F31388FFF7E9FF0E4AEB
:10447800234611464FF0FF3403F120000133102B7F
:1044880042F82040F8D100234FF0FF3003F16002DA
:104498000133102B41F82200F8D162B6BFF34F8FD9
:1044A800BFF36F8F10BD00BF00E100E0064B9B68B3
:1044B800834207D1EFF3058323B1044A536843F0DD
:1044C8008053536005F0D0BE0C14002000ED00E0CE
:1044D8001FB5094C094A23460121094800F012F981
:1044E80000230393074B0121E41A01A801930294C6
:1044F80000F012F904B010BD0000072000000020F1
:1045080048E60000B804002010B50B680C7A23F0C8
:104518001F0204F01F031A43CB68640923F01F032A
:10452800044943EA440343F001038860CA600B610D
:1045380010BD00BF90ED00E0072810B50DD9084B5D
:10454800084A0146D21AD2089201074842F00102ED
:1045580007F073F86FF0150010BDFFF7D5FFFBE704
:1045680028E30000A0E3000015F700002DE9F04F54
:104578008946144606464FF00008544D85B0C84594
:1045880033DAD6F804A0BAF1000F4DD0BAF11F0FF4
:104598001ED91AF01F0F1BD1D6F800B01BF01F0F41
:1045A80016D1584607F0BAFD07460AEB0B0001384A
:1045B80007F0B4FD87421CD06FF01507444A454BFD
:1045C8003946D21AD2089201434842F0010208E063
:1045D80041463F4A3F4B4148D21AD208920142F025
:1045E800010207F02AF86FF01504204605B0BDE86F
:1045F800F08F17F1160FE1D0631EBB42DEDBAF6010
:10460800E968AF602B6921F01F0143F01F0BD6E961
:1046180000321A44994202F1FF3A1AD1D34507D120
:104628003146F8B207F083FD08F101080C36A6E719
:104638003146AF60EB6822F01F0203F01F031A43F4
:10464800EA60E0B207F073FD10F1160FCBD0441CFE
:10465800EAE7013BD345E0B223F01F03AF6006D180
:104668002A69314602F01F0213432B61EAE72969E0
:1046780001F01F010B432B61314607F058FD10F183
:10468800160FB0D0AF60EA689DF808300BF1FF3B19
:1046980062F304038DF808302B699DF808205B0845
:1046A80063F347128DF80820D6E9003213440093CB
:1046B80023F01F035B44A3EB0A03013023F01F031D
:1046C8006946C0B20393FFF737FFBDE790ED00E0FE
:1046D800A0E3000028E300005EF700003BF70000BD
:1046E8000522034B5A60BFF34F8FBFF36F8F70479C
:1046F80090ED00E0BFF35F8F0022014B5A607047D6
:1047080090ED00E010B5034C2278FFF72FFF2070E2
:1047180010BD00BF8F1400202DE9F74F264D8A46A3
:1047280006464FF00008AB46244FD0451BDAD6F8B2
:104738000490B9F1000F39D031680846019107F0AB
:10474800EDFC0199044609EB0100013807F0E6FC8D
:1047580084424FF014021A4B08D06FF0150302FB85
:1047680008F84BF8083003B0BDE8F08F14F1160FC5
:104778002C60F8D01978A142F5DD02FB08B0BC60C6
:10478800BC60FC6800F10801007B64F30400087158
:1047980038690C79400860F347140C71F96821F006
:1047A8001F016960396921F01F01296108F10108B9
:1047B80014350C36B9E700BF6411002090ED00E015
:1047C8008F14002038B50E4C2568082D14D8FFF733
:1047D80091FF00200B4B0C4A1A63854205D10B4B05
:1047E8001D70FFF77DFF002038BD616801EB0011E7
:1047F800FFF78AFE0130F0E74FF0FF30F4E700BF23
:1048080054E6000090ED00E0AAFF44008F14002059
:10481800014B1860704700BFEC01002002390129E4
:1048280002D8034B1B6818474FF0FF30704700BF92
:10483800EC0100200CB41FB509B90DF10300CDE956
:10484800020107AB069A02A905480193FCF792FFFB
:104858000022029B1A7005B05DF804EB02B07047A5
:1048680037C200000FB407B504AB53F8042B02217C
:1048780004480193FCF77EFF03B05DF804EB04B035
:10488800704700BF33C20000094B0A4900F01F02FD
:104898004009012808BF0B4603EB8203D3F8002226
:1048A80022F0E04242F08052C3F80022704700BF75
:1048B800002584500028845008B52120FFF7E4FF24
:1048C8002020FFF7E1FF0B20FFF7DEFF0A20FFF7AC
:1048D800DBFF1022044B0020C3F840244FF0502384
:1048E800C3F8140608BD00BF003000500E4B402925
:1048F80028BF402170B51D460C4C4618B04203F144
:10490800020304D1002305F81130074870BD02786E
:104918001209A25C03F8022C10F8012B02F00F0216
:10492800A25C03F8012CE9E790140020A9F7000025
:1049380038B50546054807F080FD044620B1012139
:10494800083007F099FD2575204638BD8C040020F5
:104958000B460B490246D1F8F80010B520B9BDE85E
:1049680010400120FFF7E4BF07F097FD0121002365
:10497800044601758381083007F07EFD204610BD8E
:10498800000000200E38012870B50C46194604D8DE
:10499800BDE870401046FFF7DBBF64B1084807F078
:1049A8004CFD044628B10121083007F065FD0123BC
:1049B8002375204670BD0120BDE87040FFF7B8BFE1
:1049C8003404002008B50121083007F08AFD064BA1
:1049D800064A0178D21AD2089201054842F001022B
:1049E800BDE8084006F029BE28E3000048E30000BF
:1049F800C1F7000010B50A4A0A4C81898068A41AD8
:104A0800FFF774FFFDF7CAFEE408A40144F00204AE
:104A180001462246BDE81040034806F00EBE00BF1E
:104A280028E3000048E30000E3F700002DE9F04325
:104A3800064685B090790F46144601F0BFFADFF8B4
:104A48002081804516D0414BA079414D0096ED1A42
:104A5800019001F0B3FAED08AD0145F00205CDE98A
:104A680002082B46042269463A4806F02FFE05B094
:104A7800BDE8F083204601F0A9FA4FF00C09DFF8F1
:104A8800E48009FB008043884546B34212D02F4B8F
:104A98002F4D2046ED1A01F099FA09FB0080ED0828
:104AA800AD0145F0020542882B4631462A4806F0FA
:104AB800D8FDDCE7294ED6F8F80020B101F03EFB1E
:104AC8000023C6F8F830204601F080FA0C2606FBD1
:104AD80000504368C3B1BFB9204601F077FA0122FC
:104AE80006FB00504068D0E90031007A01F01F064B
:104AF800B2404909F8B103EB8103D3E8EF1F114332
:104B0800C3E8E01F0028F8D1204601F05FFA0C2620
:104B180006FB00508368002BA9D0204601F056FA06
:104B280070432F54204601F051FA06FB0055A8683F
:104B380004F0D0FE9BE7D24303EB8103D3E8EF1FD9
:104B48001140C3E8E01F0028DED0F7E728E30000A3
:104B580048E3000007F800003CF8000000000020CF
:104B6800600400207811002073B50546084602EB62
:104B7800C303934217D18689194B1A4C3146806872
:104B8800E41AFFF7B3FEFDF709FEE408A40144F0B8
:104B980002040346324629461348ADF8004006F0A1
:104BA80079FD02B070BD144612F8081BA942E0D185
:104BB800818963788B420DD9094A0A4B0B489B1AA5
:104BC8002A46DB089B0143F0010302B0BDE87040B0
:104BD80006F047BD636802B0BDE87040184700BFE3
:104BE80028E3000048E3000091F800006FF8000097
:104BF80010B501210446083007F073FC2146BDE8D2
:104C080010400023014A0078FFF7AEBF9CE6000081
:104C18002DE9F041294B2A4CDFF8C080E41AE4085A
:104C2800A40144F001044FF0FF324FF0FF33404637
:104C380007F008FC067D0546012E39D18389012B32
:104C48000CD840F617131F4A1F49204806F081F870
:104C5800404080F311884FF0030002DF022105F184
:104C6800080007F03EFC03780746052B1ED00E3BD4
:104C7800012B88BF0226B3070CD440F61B13114A38
:104C88001349124806F065F8404080F311884FF048
:104C9800030002DF032329460E4A3878FFF764FF32
:104CA800284601F04BFA05F021FABCE70326E2E7B3
:104CB80022463146084806F0C0FCF1E728E3000028
:104CC80048E30000B3F80000E7F8000000F900002E
:104CD8001DF90000ACE600004BF90000FC000020C4
:104CE80038B504210446083007F0FBFB4578017805
:104CF80022464088FFF79AFE25B1BDE838400248B1
:104D080004F0E8BD38BD00BFE000002038B503213D
:104D18000446083007F0E5FBA368057822461978B1
:104D2800B0F80100FFF782FE25B1BDE8384002481F
:104D380004F0D0BD38BD00BFE000002010B5C1E9C7
:104D480000239DF808300C460B7201F03FF90C2245
:104D5800024B02FB0030446010BD00BF78110020F8
:104D68002DE9F84F4FF0FF324FF0FF330546164854
:104D78000E4607F062FB0027044600F1080B0121EC
:104D8800584607F079FB2046277501F01FF94FF0C8
:104D98000C0ADFF838800AFB00804580204601F0C5
:104DA80015F90AFB00808760204601F00FF90AFB1D
:104DB800008003214760584607F073FB8670058022
:104DC8002046BDE8F88F00BF60040020781100205D
:104DD8002DE9F041074615460C4686B021B9FFF784
:104DE800BFFF0446002855D001220021684608F07C
:104DF800E7FC204601F0EAF80C23284E03FB00608C
:104E0800C0F808D0204607F048FB0146244807F0C0
:104E180037FB4FF4A0220023684604F081FD80464A
:104E280080B140F231131F4A1F49204805F091FF15
:104E380041461F4805F08DFF404080F311884FF030
:104E4800030002DF204601F0C1F80C234343F65C5F
:104E5800BEB1184A184B39469B1ADB089B013246EB
:104E6800164843F0020306F0FCFB204601F066F901
:104E7800092E0CBF6FF06E006FF0040006B0BDE89D
:104E8800F08115B130462C60F8E7204601F056F95C
:104E98002846F3E76FF06800F0E700BF78110020BC
:104EA80014010020B3F800005FF9000000F90000C9
:104EB80068F9000028E3000048E3000088F90000D2
:104EC800F7B5AE4DD5F82C31996811F001011AD11A
:104ED80040F6034001AAFFF77BFF0446002870D183
:104EE800019B9B681B785BB905F1CC03D3E8AF2F16
:104EF80002F00502D3E8EF1FC3E8E02F0028F9D13C
:104F0800019801F01BF9002141F2030001AAFFF703
:104F18005FFF0446002854D1019B082299689848ED
:104F2800013107F06BF9019801F008F9214641F2C7
:104F3800010001AAFFF74CFF0446002841D101985F
:104F480083685A7885F86820D9789A7842EA0122E5
:104F5800A5F86A201A7985F86920197ADA7942EA77
:104F68000122A5F86C205A799B7942EA0323A5F817
:104F78006E3001F0E3F8214641F2020001AAFFF782
:104F880027FF0446E8B9019B402299687D48013112
:104F980007F034F9019801F0D1F800F0BFFF04469A
:104FA80078B995F8743058060ED4774B7749784815
:104FB800C91AC908890141F0010106F031FB6FF0F7
:104FC8001204204603B0F0BD214642F2030001AAB4
:104FD800FFF7FEFE04460028F3D1019B08229968DA
:104FE8006C48013107F00AF9019801F0A7F895F823
:104FF8007430990655D595F894301A076CD4082161
:1050080042F20100FFF7ACFE0446002850D0082108
:10501800084407F046FA022700222146077042702A
:105028008270C270027142718271C27142F20100D3
:10503800FFF7CEFE04460028C3D1082140F6014000
:10504800FFF78EFE064698B30821084407F029FAB0
:105058008023437020230470847004714471847128
:105068002246C770C371314640F60140FFF7B0FED3
:1050780004460028A5D1014601AA4FF60140FFF7D2
:10508800A7FE044600283BD040493F4B4248C91A76
:10509800C9088901394306F0C3FA00F095FC0446B3
:1050A8008FE7022140F66D40FFF75AFE064610B919
:1050B8006FF0680485E70221083007F0F2F9012350
:1050C800447022460370314640F66D40FFF780FE7B
:1050D800044600288FD074E7002142F21C0001AA80
:1050E800FFF776FE044600287FF46BAF01988368CB
:1050F80053F8012F5B68C5E9362301F01FF87EE7F6
:10510800019801F01BF821464FF6024001AAFFF76B
:105118005FFE044640B11D491B4B2048C91AC90807
:10512800890141F00201B6E7019B3A4699681C489B
:10513800013107F063F8019801F000F895F8B930EB
:105148005B07AAD521464FF6034001AAFFF740FEA8
:1051580040B10E490C4B1348C91AC908890141F0DE
:10516800020198E70122019B0F489968114407F052
:1051780045F8019800F0E2FF8FE700BF000000202B
:10518800700000207800002028E3000048E30000B9
:10519800A4F90000D0000020C8F90000ECF90000D4
:1051A800B900002015FA0000B8000020024BD3F81F
:1051B8002C311B69184700BF000000202DE9F04181
:1051C800464B474D474EED1A474FED0806F1E008AC
:1051D800FB686FF35233FB604FF0FF324FF0FF3341
:1051E8000121414805F0BEFA60B140F693133F4AE9
:1051F8003F49404805F0ADFD404080F311884FF02D
:10520800030002DFF968C1F34531012907D90429F0
:1052180008D0AA01384842F0020206F00EFA04F05B
:1052280065FFD5E73B7B002BF9D1002200233348EB
:1052380007F008F90446002842D04FF0FF334FF03A
:10524800FF32404604F06CFBD6F8F83053BB2046DA
:1052580007F023F9C6F8F8002046FFF7A7FF014634
:105268000028DCD0AA01264842F0010206F0E5F940
:10527800244804F02FFB204600F0A8FE0C22224B05
:105288001F2102FB003022464088FFF7CFFBD6F8EB
:10529800F80000F053FF00232046C6F8F83000F06D
:1052A8004DFFBCE7A901194841F0010106F0B8F922
:1052B800D6F8F80000F042FF0023C6F8F830C6E739
:1052C80040F62A13094A12490A4805F042FD4040AF
:1052D80080F311884FF0030002DFAEE728E30000F7
:1052E80048E3000000000020F0010020B3F80000AF
:1052F8005FF9000000F9000060FA000014010020C6
:105308003EFA0000E00000207811002081FA000039
:10531800BDF700002DE9F041044600F108063046CB
:1053280007F0E7F8A7890546012F0CD840F6275360
:10533800204A2149214805F00CFD404080F311889E
:105348004FF0030002DF3046022107F0CAF8037865
:105358000646052B26D00E3B012B94BF4FF00108C3
:105368004FF0020818F0010F0CD140F62B53114AE8
:105378001349124805F0EDFC404080F311884FF0C6
:10538800030002DF022321460E4A3078FFF7ECFBC8
:1053980018F0020F09D02069A78110FA85F5A560D9
:1053A800BDE8F0814FF00308DCE72046BDE8F04196
:1053B80000F0C4BEB3F80000E7F8000000F90000F0
:1053C8009CFA0000C4E6000038B5047D0546012CAF
:1053D80017D183681B78052B11D00E3B012B88BF92
:1053E8000224E30702D52846FFF794FF14F00200D1
:1053F80004D00C48294607F043F8002038BD0324A0
:10540800EFE7094B094A2146D21AD2089201084807
:1054180042F0010206F011F9284600F08FFE6FF005
:105428001500EBE7FC00002028E3000048E300003B
:10543800B5FA0000084A0346D2F82C0130B9D968F9
:1054480039B1196929B1C2F82C3170476FF077006A
:1054580070476FF01500704700000020044BD3E838
:10546800EF2F42F00202C3E8E12F0029F7D170477D
:10547800CC00002010B5FFF723FD08B9FFF7EEFFB9
:10548800034B1B6813B1BDE81040184710BD00BF9F
:10549800F01100202DE97043394D0646D5F82C311E
:1054A80088B07BB9374B38493848C91AC9088901C7
:1054B80041F0010106F0B4F86FF01204204608B07C
:1054C800BDE8708305F1CC03D3E8EF4F44F0010247
:1054D800C3E8E12F0029F7D114F001044DD12C4B7A
:1054E8004FF000084FF000091E606FF008034FF4FA
:1054F8008062CDE90243CDE90689CDE90044254B18
:1055080025490494254804F04DF82549234808F016
:105518008CF86FF007034FF48062CDE90243CDE9C0
:105528000689CDE900441F4B1F4904941F4804F025
:1055380039F81F491D4808F078F8D5F82C31DB6890
:105548009847044658B10F4B0F4A0146D21AD20861
:105558009201184842F0010206F06FF8AEE73EB932
:10556800FFF7AEFC04460028A8D1FFF777FFA5E7B0
:1055780005F1BC0004F0ECFAA0E76FF077049DE7B2
:105588000000002028E3000048E30000C9FA0000FA
:10559800F0110020C5510000E0250020C0060020C1
:1055A800E2FA0000194C0000E0210020400600202B
:1055B800E8FA0000EEFA0000004870470AFB000015
:1055C800F8B5064600250A4FFB79ECB2A34202D88B
:1055D8006FF0010409E0C4EBC401072230463944E6
:1055E80006F0FCFD01350028EED12046F8BD00BFCD
:1055F8000000002038B506221349054606F0EEFDE6
:105608000446E0B1062142F20500FFF7A9FB044673
:10561800B8B106222946083006F049FF2146002283
:1056280042F20500FFF7D4FB044640B9062229469A
:10563800054806F0E3FD0122044B83F8602020466C
:1056480038BD6FF06804FAE7610000200000002010
:1056580030B504460D4685B0A1B10023072228467F
:1056680002A90293CDF80B3006F0B8FD50B107221D
:1056780029461148C4EBC404204406F0BFFD0020AD
:1056880005B030BD684606F0DFFD0028F8D1684651
:10569800FFF796FF0028F5DA0748C4EBC404044472
:1056A80007226946204606F0A9FD002DE7D007220B
:1056B80021462846E1E700BF0000002073B50E46EA
:1056C800044618B946B36FF0150023E000230722FB
:1056D80069460093CDF8033006F080FD0028F1D02C
:1056E8002378012B04D1A37903F0C003C02B0AD07F
:1056F8001B4B1C491C48C91AC908890141F0010102
:1057080005F08EFFDFE72046FFF75AFF0028D9DBB8
:105718006FF0770002B070BD144DEB79012B1CD0EF
:1057280005F1CC03D3E8AF3FDB070BD4002CCAD07C
:105738000722694620460096CDF8036006F04EFD24
:105748000028C0D0EE792146731C3046EB71FFF774
:105758007FFF002808BF3046DCE76FF00B00D9E771
:1057680028E3000060E300001DFB000000000020AB
:1057780070B586B00646002141F2090001AAFFF77C
:1057880027FB044660B11A491A4B1B48C91AC908B5
:10579800890141F0020105F043FF002006B070BD09
:1057A800019B02909D6806220135ADF80C0002A904
:1057B800284606F013FD18B9019800F0BFFCECE785
:1057C8004FF0FF330622284604A90493ADF814309D
:1057D80006F004FD0028EFD006222946701C06F0CA
:1057E8000DFD0198347000F0A9FC0120D6E700BF38
:1057F80060E3000028E300004BFB000007B56846A3
:10580800FFF7B6FF044BD87118B169460020FFF7BF
:105818001FFF03B05DF804FB000000202DE9F341F1
:10582800254B074693F8BA400E4614F001040AD1F6
:105838002249234B2348C91AC908890141F00201AA
:1058480005F0EEFE12E000214FF6094001AAFFF72D
:10585800BFFA054670B11A4B18491B48C91AC9083E
:10586800890141F0020105F0DBFE0024204602B068
:10587800BDE8F0814FF01608019B9B685C78B44244
:1058880028BF34469E1CA5420DDB019800F056FC4B
:10589800002CEBD109490A4B0C48C91AC9088901DF
:1058A80041F00201CCE708FB05701622314606F0EC
:1058B800A5FC0135E7E700BF0000002060E3000019
:1058C80028E3000069FB000095FB0000B5FB000021
:1058D800F0B5144D89B0EC792CB9012102A8FFF775
:1058E8009DFFE871B8B900210846FFF7E7FE10E010
:1058F80002AB07FB063106220DF1010006F07EFC23
:105908000123694630468DF80030FFF7A1FE0134C7
:1059180010B109B0F0BD1627EB79E6B2B342E7D86B
:105928000020F6E7000000202DE9F84311F00104FB
:105938000E4690461F46057826D0224C2AB1880686
:1059480003D594F8D030590639D5C5EBC503E35CC7
:105958004FEAC509012B08D0A9EB0505635DB8F12D
:10596800000F0CD100203B7007E0072010FB05302A
:105978002044FFF73FFE0028EED0BDE8F883B206CA
:1059880048BF43F00203EDE74B0714D50D4EC5EBB6
:10599800C503F35C4FEAC508012B0AD1072010FBA9
:1059A80005303044FFF726FEA8EB0505735D3B7014
:1059B800E3E72046F8E706F055FC0123F7E76FF028
:1059C8008500DAE70000002038B5164DEB7913B1F1
:1059D8000024204638BDFFF711FF044650B1124994
:1059E800124B1348C91AC908890141F0010105F091
:1059F80017FEEEE7EB79002BEAD1FFF769FF0446C3
:105A08000028ECD1681CFFF7F5FD04460028E0D01B
:105A18000549064B0748C91AC908890141F001011F
:105A2800E5E700BF0000002060E3000028E3000075
:105A3800DEFB0000FDFB0000436837B5044658054F
:105A480002D5002003B030BD22690AB1D907F8D5C4
:105A58001A4D2078EB798342F3D90023C0EBC000BC
:105A68000722694628440093CDF8033006F0B6FBB8
:105A78000028E6D06068C20706D495F86830082B7D
:105A880002D8A3689F2BDCD910F0300F02D023690D
:105A9800002BD6D0C30601D4236943B9D4E9022325
:105AA8009A42CED81F2ACCD9B3F5804FC9D800F472
:105AB8006030B0F5603018BF0120C3E70000002057
:105AC8002DE9F74F0C46202182461546FFF748F985
