:020000040100F9
:10000000387600213D1502014572020111150201E9
:100010001115020111150201111502010000000065
:100020000000000000000000000000008D1202012E
:100030001115020100000000351202011115020124
:100040000D1302010D1302010D1302010D13020124
:100050000D1302010D1302010D1302010D13020114
:100060009F7702010D1302010D1302010D1302010E
:100070006F7702010D1302010D1302010D1302012E
:100080000D130201897702010D1302010D13020104
:100090000D1302010D1302010D1302010D130201D4
:1000A0000D1302010D1302010D1302010D130201C4
:0800B0000D1302010D13020102
:1000B80053B94AB9002908BF00281CBF4FF0FF31C7
:1000C8004FF0FF3000F070B9ADF1080C6DE904CEC7
:1000D80000F006F8DDF804E0DDE9022304B070471B
:1000E8002DE9F047089E0D4604468A46002B7FD12D
:1000F8008A42174641D9B2FA82F24AB1C2F12001C6
:1001080005FA02F39740944020FA01F141EA030A04
:100118004FEA17484FEA144C1FFA87F9BAFBF8FE62
:1001280008FB1EA30EFB09F14CEA0343994206D9CA
:10013800FB1802D2994200F224810EF1FF3E591AAF
:10014800A3B2B1FBF8F008FB101100FB09F943EA70
:100158000144A14505D93C1902D2A14500F20E81FE
:100168000138A4EB090440EA0E4000211EB1D44036
:100178000023C6E90043BDE8F08702B9FFDEB2FA02
:1001880082F2002A4FD1CB1B4FEA174E1FFA87F88D
:100198000121250CB3FBFEFC0EFB1C302B4608FB93
:1001A8000CF945EA0045A9450AD97D192CBF012358
:1001B8000023A94502D9002B00F0D9800CF1FF3C9F
:1001C800A5EB0905A3B2B5FBFEF00EFB105508FB25
:1001D80000F843EA0544A04505D93C1902D2A045D8
:1001E80000F2C9800138A4EB080440EA0C40BDE7DE
:1001F8008B4208D9002E00F0B1800021C6E9000525
:100208000846BDE8F087B3FA83F1002946D1AB422E
:10021800C0F0A780824240F2A4800846002EAAD0EF
:10022800C6E9004AA7E7C2F12000974001FA02F3A5
:100238004FEA174EC14024FA00F51FFA87F8944098
:100248001D43B1FBFEF02B0C0EFB101100FB08FC4C
:1002580043EA01439C4509D9FB182CBF0121002121
:100268009C4502D9002900F095800138A3EB0C03C6
:10027800ADB2B3FBFEF10EFB113301FB08FC45EAFE
:100288000345AC4505D97D1902D2AC4500F28980F9
:100298000139A5EB0C0341EA00417AE7C1F12004DA
:1002A8008B4002FA01F705FA01FCE24020FA04F853
:1002B800E54000FA01FE134348EA0C024FEA1348EE
:1002C8004FEA124C1FFA83F9B5FBF8FA08FB1A55E6
:1002D8000AFB09F04CEA054C60450AD913EB0C0CF3
:1002E8002CBF01250025604501D9002D55D00AF104
:1002F800FF3AACEB000C92B2BCFBF8F008FB10CC58
:1003080000FB09F942EA0C4CE14505D913EB0C0C4A
:1003180001D2E1453BD8013840EA0A40ACEB090C70
:10032800A0FB0789CC4545464A4602D306D1C645B7
:1003380004D20138B8EB070569EB03022EB3BEEB14
:1003480005036CEB020C23FA01F20CFA04F42CFA04
:1003580001F300211443C6E900430CE73146304657
:1003680009E7841A65EB030301209A4656E7ACF1C6
:10037800020C3D4424E702383C4434E702383C444C
:10038800EFE6AEF1020E3B44D9E63146F3E6023819
:100398009C44C1E702383B4468E7AAF1020A9C443E
:1003A800A7E702393D4474E7704700BF73B50A4CAC
:1003B80015461E46A46914B1A04702B070BD0DF1E0
:1003C80007008DF807401CF0C1FA9DF80720204669
:1003D800AD1A3570F1E700BF840F0021014B187981
:1003E800704700BFA40F0021044B1A79824283BFD3
:1003F8001B68242202FB003000207047A40F002154
:100408002DE9F047DFF8E48098F82E5005F1080947
:1004180008EB89035C78202C4CD0EDB2314E324F7A
:1004280004EB45136D0108EB430393F83430013BAB
:10043800052B52D8DFE803F00351514447034FF02E
:10044800070A0EB100E000BFEFF3108272B608EBA6
:1004580089092B1999F8021008EB4303A14293F874
:10046800353089F8013027D01AB90FB100E000BF44
:1004780062B62B1908EB430393F8342032B3062AEB
:1004880024D0032A22D0052A20D0012283F8342040
:1004980004EB4404514608EBC404D4E92D309847D2
:1004A80098F82E5005F10809EDB208EB89035C783D
:1004B800202CB5D1BDE8F087202389F80230D3E796
:1004C8004FF0020ABDE74FF0030ABAE725440123BB
:1004D80008EB450585F83430DAE740F6D901702095
:1004E80003F026FF0000000000000000AC0F002110
:1004F8002DE9F047354D064600F10808AB7F15F8A1
:100508002840002B14BF0027022702F0A3FE05F1A4
:10051800B4024FEA461C202104EB44030CEB040E02
:10052800DB0005EB4E0E083352F803901344A9EB99
:1005380000095B6829F07F4A1B1A574543EA0903FB
:1005480007D813F4400F04D1202909D12046BDE86B
:10055800F0879EF835302146202B31D01C46DBE74A
:1005680001EB461315F828C07601042705EB430371
:10057800644693F8353005F828303319224620466A
:1005880005EB4303914293F8354083F83470F4D176
:1005980005EB8807B9782029CBB214D0334405EB92
:1005A800430383F835C0164405EB8808202305EB80
:1005B800460588F80200204685F83530BDE8F08702
:1005C80021461C46C0E787F801C0ECE7AC0F0021C4
:1005D8002DE9F04F614E01F108044FF0200C83B073
:1005E80016F824400193644582F800C000F0AF80FB
:1005F8000F4693468246DFF8689104EB4403650092
:1006080006EBC308DAF80030D8F8C000181A000260
:10061800FF302BDBBAF80A00002867D0B8F8C6000C
:10062800002863D1D8F8BC0002F068FBB8F8C6E02F
:10063800844698F8C4000EF10103CC45034403EB4B
:100648000C0000F2868048457BDC002803DA00F1C4
:10065800F45000F5902002F089FBDAF800301B1AFC
:100668001B02B3F54C5F41DA9BF800C0019BDFF831
:10067800F4B0DFF8EC9083F800C02B19DB0003F12D
:100688000808DAF804305BF808000BEB080CC01A0D
:100698000002FF3037DBBCF80A0018B3BAF80A00CA
:1006A80000BBDAF8000002F029FB8646BAF80A0017
:1006B8009AF808C0CE4500F1010084440CEB0E0006
:1006C80047D8484534DC002803DA00F1F45000F537
:1006D800902002F04BFB5BF808301B1A1B02B3F5A5
:1006E8004C5F10DB012003B0BDE8F08F04EB47132B
:1006F8008BF80040A44606EB430393F83530202BD3
:1007080024D01C4679E72544019B06EBC5051C70DF
:100718009AF80C3095F8C80098420ED904EB4714A3
:1007280006EB440494F83540202CDBD06500A4E7A0
:1007380000F1614000F5F700CBE7002003B0BDE809
:10074800F08F00F1614000F5F70084E7019B1C7011
:10075800C8E740F20961702003F0EAFDAC0F002100
:10076800FF7F841E601000212DE9F04F164683B0EC
:100778000D461F4602F0FAFA06442B6826F07F461B
:100788009B1B1B02FF2B52DCDFF8C480DFF8C490F0
:10079800DFF8C4A00EE0ABEB06031B02FF2B46DC20
:1007A8006A682BF07F412B682960D21A5A4422F0DC
:1007B8007F426A600DF107030DF1060239462846AB
:1007C800FFF706FFA0BB9DF8074004EB440408EBC5
:1007D800C404B4F8C630D4F8C0B0002BDBD16B89A0
:1007E800002BD8D0D4F8BC0002F088FAB4F8C63090
:1007F800024694F8C41001334A450B44184421D8E2
:1008080048451DDC002816DB02F0B0FA20F07F40D6
:10081800ABEB00031B02B3F54C5FBCDA00F133020B
:1008280022F07F4BABEB06031B02FF2BB8DD002049
:1008380003B0BDE8F08F00F1F45000F59020E3E735
:100848005044E1E740F20961702003F071FD00BFF8
:10085800AC0F0021FF7F841E00807BE12DE9F0436F
:1008680014460A781F4683B0A2730D4691F80B8090
:1008780084F80D808B7A23730B89638112BBCE6851
:1008880004F108024C49701E6D688E42A0EB03000B
:1008980000F2888088426BDC002864DB214602F085
:1008A8003BFA2368701923F07F432360B8F1000FE7
:1008B80054D17B3002F05AFA20F07F40606003B0D8
:1008C800BDE8F08306463C4804F108022146C01AF8
:1008D800D5F8049002F020FA236823F07F432360C0
:1008E800B8F1000F37D0B8F1010F60D109F15F00FE
:1008F80002F03CFA20F07F43DFF8C0900DF10302CC
:10090800636001A9608902F007FA99F82F30202B5B
:1009180033D0D9F81000073020F07F4861683B4693
:1009280020683246C4F80080081A2146404420F066
:100938007F406060E868FFF717FF48B9606826F0F5
:100948007F42236806442260F61A26F07F466660D6
:1009580003B0BDE8F08309F17B00C9E7B8F1010FE6
:1009680025D15F30A6E700F1F45000F5902095E717
:1009780000F1614000F5F70090E7638906F10B0884
:100988004BB999F8B533019A934201D99B1A984407
:1009980028F07F48C2E703F0C1F90028F1D106F139
:1009A8003D08EEE740F20961702003F0C1FC40F217
:1009B800B161702003F0BCFCFF7F841EAC0F0021E6
:1009C8002DE9F04F154693B0B04E012705EB4505CC
:1009D8000391009002F038FCD6F8B833EA0006EB31
:1009E800C50506F1B4011F60083205F1BC030DF11D
:1009F800340C8D1851F802900746B5F80A800FCBD1
:100A08008CE80F006B68484604932B7A08F10105BF
:100A18001C46059302F072F99D4B25449842054403
:100A280000F215839D4200F3C781002DC0F27C813E
:100A3800737F96F81CB00193B8F1000F04D096F8B4
:100A48002C10002900F0C58196F8B43303F0FD039B
:100A5800012B00F025810020CC46B8EB00030146AD
:100A6800029018BF01230693BBF1000F0BBF5B4632
:100A78000023DE464FF0020EB7F1807F00F04D8173
:100A8800A9EB07021202FF2A40F34781002B40F02E
:100A9800BC811A464FF0010A0097002800F05B81DC
:100AA8009644704600222CF07F4A009CAAEB040C66
:100AB8005FEA0C2C48BF0CF1FF0CB0EB2C2F21DDAA
:100AC80096F8B403019C002B40F06281002C40F0A2
:100AD8004A81032840F04781A9EB010A00982AF0CF
:100AE8007F4AAAEB0004240248BFFF342412BBF15A
:100AF800000F00F04881AEF1020E4FF0000BA64542
:100B080000F34181002908BFCA460092079302F00A
:100B1800A1FBAAEB0001009A0902B1F5785F80F207
:100B2800C681039B012B079B00F0AA81B7F1807F48
:100B380008BF43F001030AF1FF30009320F07F4023
:100B4800002B00F0C8810792074602F09FF90023A6
:100B5800079A0093AAEB070323F07F418A4200F229
:100B680012810499C91B0B4313F4400F40F00B8109
:100B78003846079202F0C2F846492B1A079A8B4268
:100B8800C0F0C381441B8C42C0F02C8240498B4288
:100B980000F241828C4240F26482281A3E4C04449E
:100BA800B37F3BB9029B98452CBF4244D218A2425E
:100BB80080F21D82039B012B05D0022002F006FC67
:100BC800012002F003FC029B9845C0F0A08100F2CE
:100BD800ED8158EA030040F04982012303222146AF
:100BE80002F03EFB002800F0888196F82D90B9F1BC
:100BF800000F00F00782D146009B002B40F0A78130
:100C080096F82C30002B00F0148296F82D305BB14A
:100C1800224B01220520C3F8082502F0D7FB02F079
:100C2800C9FE002386F82D30A4EB080119390029E4
:100C380040F3268203220123104602F011FB0446EA
:100C4800002800F0188204980023D6F8B8234FF043
:100C5800FF310E900AAE059813608DF83C0001989C
:100C68000B95ADF83E808DF844B08DF845008DF8B1
:100C78004630064DCDF834900A930C910FCE0FC52F
:100C880096E80F0085E80F007EE000BFAC0F00215A
:100C9800FF7F841E0020A10700807BE100F0004157
:100CA800B6F8B6339845A3EB080A029380F0EF80B4
:100CB8000023BB4A681E02999542A0EB010000F28E
:100CC800C681904200F3BF80002803DA00F1F45097
:100CD80000F5902009A90DF12302069302F01CF8F3
:100CE8000999069BA9EB010121F07F41002B00F037
:100CF800CC81B8F10002A9EB010C4FF0320E18BFFD
:100D080001220692BAF11D0FD4BF002202F001029F
:100D1800B7F1807F10467FF4B3AE03224FF0040A88
:100D280000287FF4BDAE16E005F1F455737F96F800
:100D38001CB005F590250193B8F1000F3FF484AE7F
:100D48007DE601230146CC4603224FF0040A4FF00A
:100D5800320E02900693BBF1000F7FF4A1AED64489
:100D6800012270469FE6002960D0BBF1000F5AD1DE
:100D7800002102910099A9EB0104240248BFFF3425
:100D8800BEEB242F14DD0024204613B0BDE8F08FFD
:100D98000CB90328F7D00098A9EB0004240248BF37
:100DA800FF3424120029EED0A645ECDC0021029184
:100DB800CA464FF0000BA8E605F16145737F96F827
:100DC8001CB005F5F7050193B8F1000F3FF43CAEF0
:100DD80035E6029102F0A2FF00287FF435AE96F8BE
:100DE800B433029903F0FD03012B36D0B7F1807FAD
:100DF800A7D0A9EB07031B02FF2BA2DD0123CC46DA
:100E08004FF0320E01460693029096F82D209AB1C3
:100E1800BBF1000F1CD1002858D10120009786464D
:100E2800034602463FE6AEF1020EA1E7BBF1000F12
:100E3800A9D0AEF1020E9DE7012300979A4600283B
:100E48007FF42EAE87E700F1614000F5F70041E737
:100E5800022001230097864624E6B6F8B6234245C9
:100E68001046A2EB080A02923FF623AFBAF11D0F13
:100E7800CC464FF0320E0693D4BF00200120FBE58C
:100E8800B7F1807F00F010810023009362E6B8F18B
:100E98000003CC464FF0000118BF01230693BAF1B6
:100EA8001D0FD4BF002303F001031846DCE50AF147
:100EB800FF37B8F10003079227F07F4718BF0123D7
:100EC8003846009301F0E2FF079A43E65846DE46AB
:100ED80001230097E6E53B1A1B02B3F5A06F80F2E9
:100EE8008B80FF2B7FF736AE4DE701230322A4EB5F
:100EF8000801184602F0B4F9B0B90220002402F043
:100F080065FA012002F062FA3EE71C4648E6E11A5B
:100F180003220123022002F0A3F980F00103DBB2CF
:100F28000393069B002BE0D10123032221460020D6
:100F380002F096F90028E0D0039B002B7FD04FF0F9
:100F4800000BB8F1000F7FF457AECA464DE696F88D
:100F58002C30002B75D1A7F132014FF0010A114F47
:100F6800002321F07F4103220520C7F808A502F0DD
:100F780077F9002870D0052002F010FA96F82D2095
:100F88004FF00043084903600B60C7F804A5002A26
:100F98007FF44AAE02F000FD86F82DA044E600BFBB
:100FA800FF7F841E00F0004180500041012303228E
:100FB800A4EB0801184602F053F9029B002B0CBF62
:100FC800002300F001030393002B95D0029B03221A
:100FD8000220E11A012302F043F9002303930028B9
:100FE800A2D18AE7B37F6442002B7FF4E3AD4FF4CC
:100FF8002461702003F09CF90792074601F046FF30
:10100800079AA7E596F82C304BB9009BD146002BE0
:101018003FF40AAE9FE7274C2C44241AC0E502F09F
:1010280091FC009B86F82C90D146002B3FF4EDAD47
:1010380091E702F013FC012386F82C30E5E5D14650
:101048007FE702F07FFC002386F82C3083E740F22C
:101058000961702003F06CF940F23E31702003F012
:1010680067F940F60C31702003F062F940F6771109
:10107800702003F05DF940F67921702003F058F9EB
:1010880040F67121702003F053F9B8F10003A9EB81
:10109800010C18BF01230693BAF11D0FD4BF00231A
:1010A80003F001031846DFE440F60D11702003F049
:1010B8003FF900BF0080841E2DE9F041454C01F145
:1010C80008080D46074614F82860202E35D1424BF3
:1010D8000BB100E000BF02F0BDF894F83030202BCF
:1010E80006D0E368C3F1020303441B02FF2B29DC8B
:1010F800202E0DD039463246FFF762FCC0B30023DC
:1011080004EB880884F8306088F80330BDE8F08183
:1011180094F82C3033BB94F82D30B3B9042002F086
:1011280055F902F0E5F92021D4F8B833002284F803
:10113800301001201A60BDE8F0810846FFF7D8F9A1
:101148008642C4D00020BDE8F081244B012205204E
:10115800C3F8082502F03AF902F02CFC002384F8C1
:101168002D30DBE702F0EEFB002384F82C30D2E7C9
:1011780006EB451214F828C06D01042704EB42025F
:10118800634692F8352004F828201A46EB18964250
:1011980004EB4303114683F8347093F83530F4D1E7
:1011A80004EB8807BE78202EF3B20FD02B4404EB53
:1011B800430383F835C0154404EB8808202304EB67
:1011C800450488F8021084F835309FE787F801C095
:1011D800F1E700BFAC0F00210000000000F0004163
:1011E80038B51D4C42F220032025238484F8225070
:1011F80000204FF0FF3384F82300A36084F82E000A
:101208002060A07784F82F5084F82800034604F162
:101218003401024684F82900A08384F83050A08560
:10122800C4F8B40301F813200133202BFAD1FF23AB
:1012380001250A4884F8BC3384F82A5003F0FAF8E8
:1012480084F8BD0303F05EF9C4F8B80301F0AAFD01
:1012580084F8315038BD00BFAC0F002109040001EB
:1012680008B5064B93F82F20202A01D0987708BD9F
:1012780040F2EA31702003F05BF800BFAC0F0021A8
:1012880038B5044632B901200A4B00FA04F4C3F811
:10129800084538BD00200D4602F080F8012344F0CF
:1012A8000042044903FA04F402602A60C1F80445C4
:1012B80038BD00BF00F000412DE9F04FC24C83B0AB
:1012C80001F0C8FF054602F013F9A368013302D004
:1012D8004FF0FF33A360A37F002B00F00A81637EE9
:1012E80023B194F82930002B40F00081E81C20F04D
:1012F8007F4001F0CBFD94F82A30002B40F05E814E
:1013080094F82F200121202A84F82A1000F0518116
:1013180094F82FA0202284F828305FFA8AFA84F8FB
:101328002F2084F8302084F8293094F8B42394F8D6
:101338002E80023A236008F108065FFA88F8012A2D
:1013480014F826308CBF00220122202B227709D0E6
:1013580003EB430304EBC309DB0099F8CA20012A15
:1013680000F0F880DFF870924FEA481704EB860B1C
:1013780014F82650202D04D04046FFF7B9F88542CE
:10138800F6D1B9F1000F01D000E000BF01F062FF13
:1013980094F83030202B06D0E368C3F102030344ED
:1013A8001B02FF2BE4DC202D2CD02A460121FFF75D
:1013B80007FB00285BD0002204EB860384F830503A
:1013C800DA7007EB0A0304EB430393F83420022A8C
:1013D80034D004EB86060122737884F82B20202B66
:1013E80003D094F8BD0303F041F8237F002B40F0AD
:1013F800A98003F07FF810B1744B00221A6003B083
:10140800BDE8F08F94F82C30002B66D194F82D307D
:10141800002B55D1042001F0D9FF02F069F8D4F867
:10142800B8330022202184F830101A6007EB0A0331
:1014380004EB430393F83420022ACAD104EB860153
:1014480006208A7883F83400202AD3B27FD03B4420
:1014580004EB430383F835A05744202204EB8603AA
:1014680004EB470783F802A087F83520B1E77A191B
:1014780014F826C0042004EB4202634692F8352093
:1014880004F826201A46FB18954204EB430311463C
:1014980083F8340093F83530F4D19BF80200202803
:1014A800C3B220D03B4404EB430383F835C03A442D
:1014B80020238BF8021004EB420282F8353057E7FC
:1014C800434B01220520C3F8082501F07FFF02F0F5
:1014D80071FA002384F82D309CE702F033FA0023D8
:1014E80084F82C3092E78BF801C0E0E701F014FE95
:1014F80001E7D4E903304FF40C71C01A000248BF69
:10150800FF3000121BF033FA23690344EB1A1B0265
:10151800FF33FFF6E4AE94F82F20082194F82F301B
:1015280002EB420203EB430304EBC20204EBC304E5
:10153800D2F8B430D4F8B80098474FF486617020D8
:1015480002F0F6FE02F02CF80023A38351E781F89D
:1015580001A081E701A90DF10302B9F8C60003F162
:10156800080701F0D9FB94F82F301A49202B01EB1A
:10157800070B0ED02369073323F07F42DBF80430D2
:10158800C859CA511B1A134423F07F43CBF80430BF
:10159800E8E6B9F8C63005F10B0913B929F07F421E
:1015A800ECE702F0BBFB0B490028F7D105F13D0938
:1015B800F4E740F24A41702002F0BAFE40F2474197
:1015C800702002F0B5FE00BFAC0F0021048C004172
:1015D80000F000416010002100000000F8B50D4641
:1015E800064602F09FFA1149002391F82E2001F1D6
:1015F8003404D7B204EB821402E00133202B12D05A
:1016080014F81320D8B2002AF7D103EB47170122A8
:1016180003EB430301EB470701EBC30387F83420CF
:10162800C3E92D65F8BD1846F8BD00BFAC0F002111
:101638001F280AD800EB4003012010B4044C04EB27
:10164800C30310BCC3E92D1270470020704700BFC8
:10165800AC0F002108B5034B93F8B50301F04EFB1E
:1016680080B208BDAC0F00211F2814D811490346C9
:1016780091F82E2000EB421201EB420292F834005E
:1016880058B191F82E2003EB421201EB420292F876
:101698003400012802D000207047704710B491F838
:1016A8002E40002203EB441301EB430383F834205C
:1016B80010BC7047AC0F002108B501F0CBFDBDE8A8
:1016C800084001F01BBB00BF144A08B503460818C0
:1016D80093421ED8124B994216DC124B99420EDDEA
:1016E800904207DC002800DB08BD00F1F45000F54B
:1016F800902008BD00F1614000F5F70008BD40F2F8
:101708000B61702002F014FE40F20A61702002F0B2
:101718000FFE40F20961702002F00AFEFF7F841E6E
:101728000020A107FFDF5EF810B5174C94F83020B1
:1017380082421CD000EB400004EBC004D4F8BC008B
:1017480001F0DCFAB4F8C630024694F8C44001331C
:101758000E4923448A42184410D8884202DC0028E3
:1017680007DB10BD00F1614000F5F70010BD6068AF
:1017780010BD00F1F45000F5902010BD40F2096151
:10178800702002F0D5FD00BFAC0F0021FF7F841E42
:10179800AA4A5368C3F308032DE9F04F814687B07E
:1017A800002B00F02381103B59B20029C0F29C8025
:1017B800A34B13F801804FEA581899F80030002B12
:1017C80040F09F809A469F4E9F4C24B100214FF4D1
:1017D800CB6000E000BF96F82E50EDB24FF000034A
:1017E80086F82B3024B1002140F25D6000E000BF94
:1017F800B8F1000F48D124B1002140F2656000E043
:1018080000BF01F027FD2B4602AA49460746FFF70D
:1018180025F824B1002140F26B6000E000BF96F883
:101828002F30202B73D033690299CA1A1202FF3263
:101838006DDA039823F07F424FF0010B03440292C4
:101848005B1A23F07F43039354B1002140F2756083
:1018580000E000BF24B1002140F27B6000E000BF3F
:10186800DDE90232DB1BD21B134313F4400F51D0C6
:10187800B8F1000F40F0888096F82B30002BA4D1E7
:10188800504607B0BDE8F08F704B6F1C03EB851E08
:1018980007F0010B03EB8B1C5F46BEE80F00ACE8BA
:1018A8000F00BEE80F00ACE80F00BEE80F00ACE880
:1018B8000F009EE80F008CE80F0024B1002140F2D1
:1018C800CD5000E000BF08350BF1080B56F8253065
:1018D80046F82B30002C00F08780002140F2D150D0
:1018E8003D4600E000BF86E703F00F03043B1344C6
:1018F80093F8188099F800304FEA5818002B3FF4F5
:1019080061AF4FF0000A504607B0BDE8F08F4FF0C6
:10191800000B99E7B8F1000F28D1BBF1000F08D1EF
:101928000CB3002140F28E604FF0010A00E000BFC6
:10193800A2E7029801F0E2F9BDF812309DF81020F4
:1019480001331344424A9042034472D8404A9342B6
:101958004FDC002B03DA03F1F45303F59023C9F8A5
:101968000C30002CDDD14FF0010A85E72B463A46B2
:1019780002A93848FEF7F8FE4BEA000B5FFA8BFB2A
:10198800BBF1000FCCD0D4E70DF1030201A9BDF8DB
:10199800120001F0C1F996F82F30202B33D03369AB
:1019A800073323F07F40DDE9022302909B1A0344AA
:1019B80023F07F43039301F0A1F9BDF812309DF89D
:1019C800102001331344224A9042034431D89342F1
:1019D80014DC002B03DA03F1F45303F590234FF0E2
:1019E800010AC9F80C3047E73D4604E74FF00808FC
:1019F800E3E603F1614303F5F703B0E703F161435D
:101A080003F5F703EBE7BDF8123007F10B054BB907
:101A180096F8B533019A934201D99B1A1D4425F0D3
:101A28007F40C0E702F07AF90028F1D107F13D05BF
:101A3800EEE740F20961702002F07AFC00ED00E068
:101A480000E400E0AC0F002100000000E00F0021DE
:101A5800FF7F841E0020A107A14A53682DE9F04F9B
:101A6800C3F308038BB082460191002B00F0F2818A
:101A7800103B59B20029C0F213819A4B5B5C5B0999
:101A88000093002B40F01681974C94F82F30202BB0
:101A980000F06582019B1B780093002B40F0508278
:101AA800924D25B1002140F2527000E000BF0AEBD0
:101AB8004A034FF00108DB00029325B1002140F2F0
:101AC8005A7000E000BFB8F1000F04D1884B0BB189
:101AD80000E000BF62B694F82E60F6B24FF000093D
:101AE800009B84F82B90002B40F00881374625B1E5
:101AF800002140F26E7000E000BF01F0ABFB3346FE
:101B080006AA01998346FEF7A9FE25B1002140F2F5
:101B1800757000E000BF0AEB47194FEA471804EB5D
:101B2800490999F83430013B012B00F2D380069B18
:101B3800704AA3EB0B031A40002A40F0178107F103
:101B4800080308EB0A02042704EB830004EB4202B3
:101B5800817882F834702029CAB200F0B9814244F1
:101B680004EB420282F835A0D044202104EB830222
:101B78004FF0010B04EB480882F802A088F83510F2
:101B880004EB8303DF7825B1002140F27C7000E08C
:101B980000BF594B0BB100E000BFEFF3108972B6DC
:101BA800C84625B1002140F2827000E000BF94F8D9
:101BB8002B10002981D11DB140F28A7000E000BFCE
:101BC800029B04EB030C06AB0CF1BC0C0FCB8CE8AE
:101BD8000F00BBF1000F30D025B1002140F2977003
:101BE80000E000BF009B003B18BF01231F4000F02E
:101BF800768194F82F30202B11D125B1002140F2A5
:101C08009C7000E000BF31460220FFF755FA30B95A
:101C1800019B1978002900F06781012951D0002D16
:101C280000F00D81002140F2B97000E000BF002FE4
:101C380040F00581012384F82B3025B1002140F2C2
:101C4800CA7000E000BFB9F1000F04D1284B0BB1F6
:101C580000E000BF62B625B1002140F2CE7000E07E
:101C680000BFBBF1000F11D094F82E3004EB8303B2
:101C780093F82130202B09D025B1002140F2D570EE
:101C880000E000BF94F8BD0302F0F0FB25B100218D
:101C980040F2DA7000E000BF58460BB0BDE8F08FA4
:101CA80003F00F03043B13441B7E5B090093002BD6
:101CB8003FF4EAAE019B1B78012B00F246810A4CE7
:101CC800EEE6002D3FF4FFAE014640F2AF7000E0B3
:101CD80000BFF2E607F108034FF0000B50E700BF22
:101CE80000ED00E000E400E0AC0F0021000000007F
:101CF80000000000FEFFFF00000000009A4B771C68
:101D080003EB861E07F0010703EB871CBEE80F00F4
:101D1800ACE80F00BEE80F00ACE80F00BEE80F000B
:101D2800ACE80F009EE80F008CE80F0025B149468B
:101D380040F2CD5000E000BF083607F1080354F820
:101D4800262044F8232055B1002140F2D15000E06C
:101D580000BF25B1002140F2647000E000BF94F894
:101D68002B30002B7FF4A9AEFEB2C0E60798A0EB9B
:101D78000B00034313F4400F7FF4E1AE0DF117039A
:101D88000DF11602314606A8FEF722FC834600280C
:101D980000F092809DF816C09DF817E0F4455CD0DD
:101DA800BEF1200F00F0D680BCF1200F75D008EBF3
:101DB8000E0108EB0C0207F1080304EB420204EBE6
:101DC800410192F8350091F83510039082F83510EA
:101DD8004FF0050908EB00020146074604EB4202F2
:101DE8008E4592F8350082F83490F3D104EB8309DC
:101DF80099F802E0BEF1200F5FFA8EF26BD04244F0
:101E080004EB420E039A8EF835204FF02009414426
:101E180008EB0A0204EB830E04EB4101CC4504EB0A
:101E280042028EF8027081F8359082F8350021D18F
:101E380004F823A0012104EB8302D1701FE094F879
:101E48002E30DB4303F0010384F82E30012384F89D
:101E58002B30F2E6082300932CE7BCF1200F15D0B5
:101E680008EB0C0207F1080304EB420292F8352054
:101E780089F83520C44404EB4C0C8CF835A0D044C8
:101E8800032204EB480888F8342079E607F10803B0
:101E980014F8232089F83520CAE708EB0E0207F169
:101EA800080304EB420214F8231092F83520084680
:101EB800039104F823208BE707F10803042204EBBD
:101EC800830089F8342081782029CAB27FF447AE8C
:101ED80080F801A048E6039A89F8012095E71F4693
:101EE800002D7FF49FAEA2E61DB140F2A47000E081
:101EF80000BF94F82E304FF0040C03F108020AEBEF
:101F080043115B0104EB820604EB4101B07881F8D0
:101F180034C02028C1B210D0194404EB410181F823
:101F280035A0534404EB82022021BB4604EB430353
:101F380082F802A083F835107FE686F801A0F0E762
:101F480040F24B71702002F0F3F940F24F717020AB
:101F580002F0EEF940F27E21702002F0E9F94FF428
:101F6800E961702002F0E4F9E00F00212DE9F04F5B
:101F78000123A14C83B0A14D064604F1340B009314
:101F880094F82E3025B1002140F2E97000E000BF3E
:101F9800009B23B99A4B0BB100E000BF62B64FF02B
:101FA800000384F82B3025B1002140F2EE7000E0E8
:101FB80000BF94F82E8008F101070BEB881E5FFA2A
:101FC80088F807F00107BEE80F000BEB871CACE8A8
:101FD8000F00BEE80F00ACE80F00BEE80F00ACE849
:101FE8000F009EE80F008CE80F0025B1002140F299
:101FF800CD5000E000BF08F1080807F1080A54F8BE
:10200800283044F82A3025B1002140F2D15000E0B0
:1020180000BF94F82B10002940F0AF802DB14FF489
:10202800FF60019100E000BF019906EB47134FEAFA
:10203800471804EB430393F83430032B40F0AF8088
:1020480014F82A904E4518BFB9F1200F14BF01218A
:10205800002100F0C1804B4608EB03011A4604EB4F
:10206800410393F835309E4218BF202B14BF01213D
:102078000021F1D1202B00F09280994500F0918049
:102088004344424404EB430304EB420293F83530E3
:1020980082F8353085B1002140F2375000E000BFAA
:1020A8004E4503D1012204EB8A03DA7025B10021E1
:1020B80040F2FD7000E000BF08EB060304EB4303A9
:1020C80093F834204AB1062A07D0032A05D0052AF6
:1020D80003D0012283F8342005E0B044012304EB47
:1020E800480888F8343004EB8A0A9AF8038025B146
:1020F800002140F6080000E000BF424B0BB100E0B1
:1021080000BFEFF3108372B6009325B1002140F6AB
:102118000D0000E000BF94F82B30BBBBB8F1000FF6
:1021280003D094F82F30202B47D025B1002140F65A
:10213800250000E000BF94F82E30DB4303F00103D4
:1021480084F82E300123994684F82B3025B10021DC
:1021580040F62E0000E000BF009B23B9284B0BB1CE
:1021680000E000BF62B625B1002140F6320000E071
:1021780000BF484603B0BDE8F08F002D3FF408AF1C
:10218800002140F2F47000E000BFFBE6002D3FF4B0
:10219800FFAE002140F6110000E000BFF2E68946DC
:1021A800D4E708EB090304EB430393F8353004F84C
:1021B8002A30002D7FF46FAF7EE739460220FEF704
:1021C8007BFF81460028B0D1002DC5D001464FF4D1
:1021D800026000E000BFB9E7B9F1200FDFD008EBDB
:1021E800090304EB430393F8353004F82A30002D33
:1021F8003FF456AF4FE700BFAC0F002100000000CE
:102208000000000000000000002001F0C7B800BF77
:10221800014B93F8BC037047AC0F002170B5072839
:1022280000F29780DFE800F01E526C76957C8E04F1
:10223800C04C94F82F30202B00F0E78094F82F3012
:10224800052194F82F2003EB430302EB420204EB31
:10225800C30304EBC204D3F8B430D4F8B800BDE823
:1022680070401847B34C94F82C30002B00F09E8037
:10227800E38A002B40F0908094F82F30202B00F058
:102288009B80A16801234A1C84F8293006D00322C8
:10229800052000F0E5FF002800F04181637E012B56
:1022A80000F02C8194F82F20012194F82F3002EBB4
:1022B800420203EB430304EBC20204EBC304D2F86B
:1022C800B430D4F8B800BDE870401847994C94F879
:1022D8002F30202B00F0EA80012584F8285001F0E7
:1022E8001DFD002800F0118194F82C30002B4ED0F1
:1022F80094F82D30002B3DD194F82F200021D4E7FD
:102308008C4C01F04DF9E38A5BBB94F8B433032B92
:1023180024D070BD874B0122D3F8B8331A6070BD42
:10232800844C94F82F30202B00F098804FF0FF3227
:1023380094F82930A260002B00F0EC8094F82F204C
:102348000621B2E77B4BBDE8704093F8BC0302F06E
:102358008DB840F6B401702001F0EAFF01236377DD
:1023680070BD01F0DBFC0028CFD140F6A101702040
:1023780001F0DEFF704B01220520C3F8082501F0AB
:1023880025F801F017FB002384F82D30B4E701F09D
:1023980065FA84F82C50ABE701F0C0FC00287FF404
:1023A8006BAF4FF40761702001F0C2FF01F056FADD
:1023B800012384F82C305BE794F82E3003F10802EF
:1023C800DBB214F82210202900F0AE8001EB431391
:1023D80004EB430393F8350004F82200012504EBCD
:1023E8008202D5700220002284F82B5083F8340032
:1023F80084F82F1084F82A20A27702F07BF80028AE
:102408003FF43FAF4D4B1D603BE794F82E3003F18E
:102418000802DBB214F82210202900F0858001EBB5
:10242800431304EB430393F8350004F82200012515
:1024380004EB8202D5700220002284F82B5083F826
:10244800340084F82F1084F82A20A27702F052F87A
:1024580000283FF4F3AE394B1D60EFE694F82E30B8
:1024680003F10802DBB214F8221020295CD001EB3A
:10247800431304EB430393F8350004F822000125C5
:1024880004EB8202D5700220002284F82B5083F8D6
:10249800340084F82F1084F82A20A27702F02AF852
:1024A80000283FF443AF254B1D603FE794F82E30DA
:1024B80003F10802DBB214F82210202934D001EB12
:1024C800431304EB430393F8350004F82200012575
:1024D80004EB8202D5700220002284F82B5083F886
:1024E800340084F82F1084F82A20A27702F002F82A
:1024F80000283FF4F1AE114B1D60EDE6206901386C
:1025080020F07F4000F0A6FDCCE640F69601702052
:1025180001F00EFF40F68601702001F009FF40F639
:102528007501702001F004FF40F28B31702001F03A
:10253800FFFE00BFAC0F002100F00041048C0041F9
:102548000E4B93F82F20202A11D093F82F20042126
:1025580093F82F0002EB420200EB400003EBC202AB
:1025680003EBC003D2F8B420D3F8B800104740F604
:10257800BC01702010B501F0DBFE00BFAC0F0021DC
:1025880010B52D4C82B094F82F20202A3BD0A26899
:1025980001324CD162680346284910188A4241D852
:1025A800274A934239DC274A934231DD884219DCB5
:1025B800002812DB0DF1030201A900F0ADFB9DF824
:1025C8000320019994F829300F2A88BF013121F09E
:1025D8007F41A1605BB902B010BD00F1F45000F575
:1025E8009020E7E700F1614000F5F700E2E70123FA
:1025F8000322052000F034FE0028ECD140F6F1213A
:10260800702001F095FE40F6E821702001F090FE60
:1026180040F20B61702001F08BFE40F20A617020DD
:1026280001F086FE40F20961702001F081FE40F65B
:10263800E921702001F07CFEAC0F0021FF7F841E91
:102648000020A107FFDF5EF80E4A0B1A93420DD354
:1026580010B5441A944207D30B4A934208D89442BF
:102668000AD90A48001B10BD604210BD18467047C1
:1026780001320A44101A10BD40F60C31702001F0E6
:1026880057FE00BF0020A107FF7F841E00807BE16A
:1026980010B50A4C94F8313063B194F8BC33FF2B71
:1026A80001D0002010BD01F0C5FE0346002084F8CB
:1026B800BC3310BD6FF0220010BD00BFAC0F00216D
:1026C80038B50F4B04460BB100E000BFEFF310859F
:1026D80072B6012321460322062000F0C1FD0446FC
:1026E80025B9084B0BB100E000BF62B604B138BD94
:1026F800054B93F8BC03BDE8384001F0B7BE00BFF6
:102708000000000000000000AC0F002100F0A2BD96
:10271800234970B591F82F30202B3CD091F82F60C9
:1027280091F82E3091F82E50F6B20833EDB211F828
:102738002330202B1FD06D0106E02B4401EB43030F
:1027480093F83530202B16D003EB430201EBC2027D
:1027580092F8C8408442F0D806EB4606D2F8BC008E
:1027680001EBC606D6F8C030C01A000210F1FF0F00
:1027780004DA002070BD4FF0FF3070BD00280C68EF
:10278800B8BFFF30001200F0B9FA04F174038342B5
:10279800EFD8001B70BD40F64D31702001F0C8FD28
:1027A800AC0F002108B5064B93F82F20202A01D042
:1027B800187E08BD40F67431702001F0B9FD00BFE5
:1027C800AC0F00212DE9F04F924C85B094F82F20E2
:1027D800202A00F0188194F82F60074694F82E50AC
:1027E8000DF10B0220688B462369083503A938448C
:1027F80014F82550F6B2019300F08EFAA7F174018F
:10280800854A914265D806EB4606039B04EBC6064B
:10281800D6E92F2000EB030CACEB020212F4400FB8
:1028280057D194F82E902CF07F40202D84F818B0C2
:102838005FFA89F320611A4600F0D6802023924679
:1028480004F1B409DFF8D4815A46009305EB450B2F
:102858006E004FEACB0B0BF1080B59F80B3009EB64
:102868000B011B1A1B02FF3355DB4B890BB1E38AA3
:102878009BB3052000F0AAFD4FF0FF3394F82E20FB
:10288800A360009BD2B2202B40F0C28008322025E2
:1028980014F8221094F82E2094F82F30206803EBB7
:1028A8004213384404EB4303206083F835100122B7
:1028B800637E934284F82B2000F08C80202D00F05A
:1028C800858094F8BD0301F0D1FD002005B0BDE876
:1028D800F08F012005B0BDE8F08FE06800F00EFA37
:1028E800E38A0246217D013342450B44184400F235
:1028F8008580404522DC002803DA00F1F45000F519
:10290800902000F033FA59F80B301B1A1B02B3F56C
:102918004C5FAEDA227E2E4404EBC60696F8C83029
:10292800934210D905EB4A1304EB430393F835306F
:10293800202B0ED000951D46206987E700F16140E5
:1029480000F5F700DDE7019B0220236105B0BDE833
:10295800F08F052000F03AFD94F82E204FF0FF3359
:10296800D2B2A36002F1080E05EB42134FF0050C3A
:10297800520114F82E8004EB4303414693F8353096
:1029880004F82E30531808460E4604EB4303A842B9
:1029980093F8351083F834C0F4D104EB8E0999F814
:1029A80002C0BCF1200F5FFA8CF31AD0134404EB79
:1029B800430383F83580024404EB8E0E202304EB96
:1029C80042028EF8026082F8353063E7002005B0D5
:1029D800BDE8F08F2069013820F07F4000F03AFB15
:1029E8006CE789F80180E6E7052000F0EFFC4FF07E
:1029F800FF3394F82E20A360D2B247E740F2096172
:102A0800702001F095FC40F67B31702001F090FCBD
:102A1800009DA7E7AC0F00218C1FA107FF7F841E34
:102A28002DE9F84F984C94F82E3000EB431304EB43
:102A3800430393F83430002B00F0218194F82E7072
:102A48000546924EFFB226B1002140F6C13000E0A3
:102A580000BF05EB47187F0104EB4808002E40F043
:102A6800A78007EB050804EB480898F83430012BD9
:102A780006D10EE019F0CAFF98F83430012B08D0BF
:102A88001A1F022AF6D82F44012304EB470787F8B8
:102A980034304FF0010ADFF8009226B1002140F6E9
:102AA800D83000E000BFBAF1000F04D1784B0BB169
:102AB80000E000BF62B64FF0000384F82B3026B167
:102AC800002140F6DD3000E000BF94F82EB00BF195
:102AD800010809EB8B1C5FFA8BFB08F00108BCE8C6
:102AE8000F0009EB88170FC7BCE80F000FC7BCE839
:102AF8000F000FC79CE80F0087E80F0026B10021E0
:102B080040F2CD5000E000BF0BF1080308F1080BBC
:102B180054F8233044F82B3026B1002140F2D1502C
:102B280000E000BF94F82B10002956D11EB140F6E2
:102B3800E73000E000BF04EB8B035878202810D062
:102B4800854200F0888007464FEA4812D319394673
:102B5800BA4604EB430393F83570BD4246D0202FA4
:102B6800F4D126B1002140F6EB3000E000BF494B1C
:102B78000BB100E000BFEFF3108372B694F82B207E
:102B88009A46002A5ED15FFA88F884F82E800122DE
:102B980084F82B2023B93E4B0BB100E000BF62B68E
:102BA80026B1002140F6FE3000E000BFBDE8F88FF6
:102BB80098F83430012B3FF46CAF1A1F022A5AD907
:102BC800002140F6CD3000E000BF19F01FFF0021C2
:102BD80040F6D13000E000BF40E7002E3FF463AF7D
:102BE800002140F6E33000E000BF56E7202FB8D0C0
:102BF800B84237D0D3190A4404EB430304EB42022A
:102C080093F8353082F8353026B1002140F22F5044
:102C180000E000BF04EB8B039B789F4207D0002E97
:102C2800A5D0002140F2375000E000BF99E726B157
:102C3800002140F2325000E000BF04EB8B0B8BF810
:102C480002A0ECE7002E3FF42EAF002140F6F13051
:102C580000E000BF21E7202883D007464FF0200A74
:102C68004FEA4812024404EB8B0304EB420292F849
:102C780035205A70C8E7012388F83430A7E740F6B2
:102C8800B831702001F054FBAC0F002100000000A7
:102C98000000000000000000E00F002138B50446E5
:102CA8000846154600F02AF81149031B8B420AD33F
:102CB800221A8A420BD30F498B420DD88A4212D965
:102CC8000D4B2344C31AA5F10F00C01A38BD534257
:102CD800A5F10F00C01A38BD074B1B1B0344A5F113
:102CE8000F00C01A38BD40F60C31702001F020FBEF
:102CF8000020A107FF7F841E0080841E43F609522E
:102D0800C0F30803400A02FB03F302FB00F003F5DB
:102D1800807300EB5320704770B4460B48F2376459
:102D280043F60955104B04FB06F443F60856240CE9
:102D380005FB140003FB00F35B0D05FB03F503EB38
:102D480044232E44B0EB562F08D805F580750B6048
:102D5800A0EB5520C0B270BC107070470133002042
:102D68000B60107070BC70476F0C0100410B48F28B
:102D780037620B4B02FB01F210B4120C43F60954F4
:102D880004FB1201500201FB0333013B5B0D04FB02
:102D980003F4B1EB542F10BC88BF013018447047BE
:102DA8006F0C0100F0B4304A04254FF08071002305
:102DB8002E484FF48054957051601370C0F88040CD
:102DC800BFF34F8FBFF36F8F294E0121C0F88041A9
:102DD8004FF0FF3513724FF40034264A3160C2F8C1
:102DE80008531032244DC2F830350835C6F83C3146
:102DF800C2F8343545F8083CC2F83835C6F84431CD
:102E0800C2F83C352B601160C0F88040BFF34F8F8B
:102E1800BFF36F8F05F59D4502F59F42174B383577
:102E28007832C0F8804129601160D3F80425002A5F
:102E3800FBD14FF0FF31124F124E4FF40034C3F85C
:102E480008130120C3F848130F4D0849C3F840255B
:102E58003A60C3F844253260C3F848252A600C60FC
:102E68001860F0BC704700BF6C13002100E100E05F
:102E780004C0004100C0004144C1004100100141AC
:102E880040110141441101414811014162492DE9B4
:102E9800F0410A78012A40F09C804B68834200F098
:102EA80096805E4D06265E4B6FF48024C5F8086553
:102EB800C3F8084300235A4C6FF4A026594DC4F8B0
:102EC8004863C4F844352B60574B1B68002B00F04F
:102ED8009C80534B4FF48036544C0025C3F808634C
:102EE800C3F848632560D3F80445514D041B2C42B0
:102EF80002D014F4400F08D0494B00224FF4FA7165
:102F08006C20C3F8402501F013FAC3F84005C3F854
:102F180044632AB14C68D3F80425A21A2A42FAD08D
:102F280000220126434C4FF480558A70CE60C4F8C5
:102F38008050BFF34F8FBFF36F8F3F4B4FF0FF377A
:102F4800DFF804C1C4F88051DFF800E1CCF8006074
:102F58004FF0040CC3F80873384FC3F840253A60A3
:102F6800C3F844257A60C3F84825BA60C3F84C25ED
:102F7800FA6040F201470A72CEF80060D3F80425DF
:102F8800486022F003022E48DFF8C480C3F8042505
:102F9800D3F8082522F0030242F00202C3F80825FC
:102FA800D3F8102522F00F0242EA0C02C3F81025CC
:102FB8000660CA68C3F80022224B184AC4F8805138
:102FC8002560C8F800304367C2F804C50F80BDE823
:102FD800F081124D0626124B6FF48024C5F808655F
:102FE800C3F80843002A7FF465AF05F50555C3F813
:102FF8004843C3F840250B4C2A60C3F844250A4BC4
:1030080022601B68002B7FF464AF0A4B4FF4003436
:10301800C3F880415DE700BF6C13002100F0004158
:103028000010014144110141481101414011014181
:10303800FEFFFF0000E100E000C0004140C1004188
:103048000CC000410200008004C0004110C00041D3
:10305800C0110141284AF8B516785368022E3ED0AF
:10306800834244D0137A002B3CD0244B4FF4803554
:1030780023490024234F4FF0020CC7F808C5C3F8B2
:103088000853C3F848530C60D3F804151E4C411A72
:10309800214202D011F4400F08D0184B002240F210
:1030A80012216C20C3F8402501F042F9C3F840050D
:1030B800C3F844532EB15568D3F80415691A214250
:1030C800FAD050600224114B40F20241104E114DCB
:1030D8000C4833602B60C0F804451180F8BD83426A
:1030E800C0D1F8BD40F206216C2001F021F940F270
:1030F80002216C2001F01CF96C1300210010014121
:103108004011014100F00041FEFFFF000100008076
:10311800C01101418CC00041F8B53D4A6FF48021CF
:103128003C4CC2F808132378002B54D1C2F848133A
:10313800394D3A483A49C2F840352B60C2F844350F
:1031480003600A68002A5DD1364A4FF40031C2F89C
:103158008011022B56D12E4A6368D2F80405033039
:1031680020F07F4083420FD0D2F804252E499A1AC6
:10317800114049B112F4400F06D1FFF787FEE2680B
:103188002A4BC3F80022F8BD2149294AD1F8041571
:103198005B1A1A406AB313F440032AD10121254867
:1031A8000222254F042640F20145C0F808250A46A8
:1031B800A370E160214B396007F5A34719603C37DC
:1031C8001F4B20493B600B60184BC0F804652580F5
:1031D800C3F80022F8BD6FF4A02000210F4DC2F8FB
:1031E80048030F48C2F8441529600268002AB0D184
:1031F800AAE7012300211A46E3600C4BA170C3F82B
:103208000022F8BD40F21E216C2001F091F800BFA9
:10321800001001416C13002140110141441101418A
:103228004811014100E100E0FCFFFF0000C000413F
:10323800FEFFFF0000F0004104C000410CC0004147
:103248000200008080C00041014B5868704700BFF1
:103258006C130021014BD3F804057047001001419D
:103268000328F8B5044629D848484568B5F1807F51
:1032780068D00578022D71D004F110054FF0010CCB
:10328800434F0CFA05F5C7F80853002A51D0A0009F
:1032980000F1400EC6194EF807C0D6F84005081AC6
:1032A80020F07F4700F44000BA4298BF00280CBFC6
:1032B800012000203DD0C6F84005F8BD0438C0B252
:1032C800022858D8314D2E7816B16D78A54257D0BE
:1032D800012700F1100485002E4E07FA04F4002798
:1032E80005F5A075C6F80843C6F84843AF518AB13A
:1032F800D6F804554D1B25F07F46B24202D815F486
:10330800400F07D0002200F5A870224B43F8202078
:103318001046F8BD1F4A012B00F5A8701D4B42F856
:1033280020104FF0010008BFC2F80443C3F844431B
:10333800F8BD04F5A874164A012B42F8241009D0E8
:103348000120F8BD057A002D93D140F251216C205F
:1033580000F0EEFF1846C2F80453F8BD46780E4D4B
:10336800301F032EC0B24FEA8000054484D9286874
:103378000028FCD080E740F279216C2000F0D8FFCB
:103388004FF41D716C2000F0D3FF00BF6C130021B7
:1033980000C000410010014140110141032808B557
:1033A80003D8084B03EB800008BD0438C0B20228DC
:1033B80003D8054B03EB800008BD40F29D216C202B
:1033C80000F0B6FFC0C10041C01101410328F0B5AB
:1033D80083B014D800F11004820001213A4B02F5A1
:1033E800A07200F5A870A1400024C3F8081343F8A0
:1033F8002040D450D3580093009B03B0F0BD031F66
:10340800DBB2022B5AD8314A1178F9B903F110000E
:1034180001212F4A03F5A87481402E489B00C2F869
:103428000813C2F8481352F82410D2F80455491B5F
:10343800084028B1002103F5A07042F824108150FB
:10344800254A9B580193019B03B0F0BD54788442F0
:10345800DCD1224806240129C0F8084505D00020FF
:103468004FF0807110705160D0E71D484FF48054C0
:10347800C0F88040BFF34F8FBFF36F8F194E4FF0E6
:10348800FF35C0F8804100200F4C3160C4F8085364
:10349800154DC4F84005154FA5F59A751072C6F874
:1034A8003C01C4F84405C5F83401C4F8480538603F
:1034B800C4F84C05C6F848012960D0E740F2F1216C
:1034C8006C2000F035FF00BF00C000416C130021E4
:1034D80000100141FEFFFF004011014100F00041D2
:1034E80000E100E004C0004144C1004148C100417E
:1034F800204B6FF48021204A30B4C3F808131278A7
:1035080022BB1E4CC3F848131D48C3F8402522604F
:10351800C3F844251B4B02601B6823B31A4A4FF0BB
:10352800FF310023194DC2F80813194C19481A49DC
:10353800C2F840352B60C2F844352360C2F84835DC
:103548000360C2F84C350B6030BC704700226FF442
:10355800A0200B49C3F84803C3F84425094B0A6067
:103568001B68002BDAD10D4B4FF40032C3F88021D1
:10357800D4E700BF001001416C1300214011014144
:10358800441101414811014100C0004140C10041BE
:1035980044C1004148C100414CC1004100E100E084
:1035A800074B93F91030002B09DB5A09012103F06E
:1035B8001F030448403201FA03F340F822307047F1
:1035C8006C13002100E100E038B5364BD3F8042332
:1035D800D00302D5344A116869BB324BD3F80423AF
:1035E800910303D5314A116800293FD12D4BD3F8F7
:1035F8000423520302D52E4A116801B938BD0025AB
:103608002C484FF400342C491560C0F88041D3F899
:103618004825D3F80435D31A194011B113F4400FD3
:10362800ECD0204B4FF480220620C3F80823BDE8D5
:103638003840FEF7F3BD00251E484FF400341E49FC
:103648001560C0F88041D3F84025D3F80435D31A63
:10365800194011B113F4400FBFD0124B4FF4803210
:103668000420C3F80823FEF7D9FDB6E70025114862
:103678004FF4003410491560C0F88041D3F8442550
:10368800D3F80435D31A194011B113F4400FADD053
:10369800044B4FF400320520C3F80823FEF7BEFDA3
:1036A800A4E700BF0010014140110141441101414C
:1036B8004811014100E100E0FEFFFF0070B5554CE4
:1036C80084B0A378042B32D023785BB1012B00F0AF
:1036D8009980237A002B00F097800223607823706A
:1036E800FFF774FE4C4BD3F80423150302D54B4A5D
:1036F800116811BB484BD3F80423500303D5484A3B
:103708001168002932D1444BD3F80423910303D51F
:10371800444A1168002942D13F4BD3F80423D2030D
:1037280003D5414A1168002952D104B070BD072061
:1037380004B0BDE87040FEF771BD00214FF40020D1
:103748003A4D4FF48056C3F808030320C3F84C15CC
:10375800116013680093009BC5F88061FEF75EFD59
:103768002D4BD3F804235003CDD5C8E700214FF4DF
:1037780080202E4D4FF48056C3F808030220C3F86A
:103788004815116013680193019BC5F88061FEF725
:1037980045FD214BD3F804239103BDD5B8E700219B
:1037A8004FF40030214D4FF48056C3F80803012030
:1037B800C3F84415116013680293029BC5F8806131
:1037C800FEF72CFD144BD3F80423D203ADD5A8E79C
:1037D80000204FF480351549C3F808534FF480553D
:1037E800C3F84005106016680422E0600396039E43
:1037F800C1F88051A270C3F8000204B0BDE870405F
:10380800FEF70CBD237268E740F26A316C2000F0C5
:103818008FFD00BF6C13002100C000414CC1004166
:1038280048C1004144C1004140C1004100E100E0FD
:10383800FEF786BE054BD3F80C24D3F80C0410F41D
:10384800803018BF02F00100704700BF00500041EF
:10385800014B5888704700BF8013002110B5EFF363
:10386800108472B6064A13790133DBB213711379E7
:10387800012B01D100F036FA04B962B610BD00BFC1
:103888008013002170B50B4C26785EB90125A06025
:103898002570FFF7E3FF00F041FA28B9064B2573BE
:1038A800C3F80453002070BDA368002BFAD09847D2
:1038B800A660F7E7801300210050004108B5FFF724
:1038C800CDFF00F02BFA084B38B1084A01211160EE
:1038D80004225A7300229A7308BD032201215A73E5
:1038E800034AC2F80413F5E7801300211050004181
:1038F8000050004138B5124CE37BC3B1012B03D013
:10390800A27B013B9A4212DA00F008FA054600F061
:1039180053FDE37B012B82BFA37B0133A37355B116
:103928002369C31A0133022B09D935B12061BDE8D7
:103938003840FFF7C3BF6369F3E76061F7E738BD55
:103948008013002110B5EFF3108472B60A4B1A7970
:1039580022B940F20D116D2000F0EAFC1A79013A03
:10396800D2B21A711A791AB91B7E0BB900F0C0F9D4
:1039780004B962B610BD00BF8013002108B5054B1D
:103988001A7822B100221A731A70FFF7DBFF0020A1
:1039980008BD00BF80130021EFF3108172B6044AFE
:1039A800137E0133DBB2137601B962B6704700BFEC
:1039B8008013002110B5EFF3108472B60A4B1A7EFB
:1039C80022B940F225116D2000F0B2FC1A7E013AAE
:1039D800D2B21A761A791AB91B7E0BB900F088F997
:1039E80004B962B610BD00BF80130021024B587B9A
:1039F800003818BF012070478013002170B5194D99
:103A08006B7E2C467BB9E86900F0030000F0ACF946
:103A180048B100F0A3FA30B9EFF3108372B66A7BAD
:103A280012B103B962B670BD01226A7303B962B6F6
:103A380000230D4A0D4D8026C5F80863136084F8ED
:103A48002030FFF73BFF94F844200221084B094837
:103A580053436362084B236300F086FAC5F8046396
:103A6800E1E700BF801300211C51004100500041D4
:103A780090D00300A4130021FD380001F8B5244CB0
:103A880094F84530002B42D0224B1E6804331F683F
:103A980056B10122C3F80422237B2BB10025A36869
:103AA80025730BB19847A5603FB11B4B00221A60E4
:103AB8000222C3F80422FFF7A1FF184B1A6894F8F2
:103AC8002050EDB23EB1617B032904D104210120CD
:103AD8006173134908606AB100221A60637B042B82
:103AE80004D04FF4DE716D2000F022FC02236373D2
:103AF800FFF728FF5DB1002384F82030637B022B99
:103B080001D1FFF7DBFEBDE8F840FFF71BBFF8BDAA
:103B18008013002100510041045100411C51004113
:103B28001050004110B5044CE06900F0030000F0AB
:103B38001BF90028F8D010BD80130021F8B5054600
:103B480060B10278022A09D8437852B9013B1F2B89
:103B580004D88378212B01D8012B07D16FF01500E9
:103B680060E0002BFAD18378002BF7D1554B202247
:103B7800C3F88020BFF34F8FBFF36F8FC3F8802146
:103B88004FF0FF32504B514CC3F808230023504AE2
:103B980013605360D3612371AB88638000F0CCF865
:103BA80010B1012323702371FFF744FE08B100F020
:103BB800AFF80123AA786978E3612B78E2730022D1
:103BC800012B637684F84410A2732CD0022B2DD0DD
:103BD800002B33D100F0B8F8002839D000F0BCF839
:103BE800E36903F00303984232D1AB795BBBFFF77B
:103BF80099FFE37B63B12B7853B900F08FF8054642
:103C080000F0DAFB6FF00043002D57D0C4E904033D
:103C180001232022002084F845302A4B6073C3F822
:103C280080211A60F8BD0223E361D3E7FFF716FE8F
:103C3800FFF700FE0028FBD00323F5E740F22D3103
:103C48006D2000F075FB204B0222C3F80423D0E757
:103C5800012100221F4B204E196032601A4A207F32
:103C6800C2F818051D4801600221C2F80413A97999
:103C78000029BED1D2F80423930702D440F2EE21E2
:103C8800DEE7174A1769116907F0100741F01001BC
:103C9800116133687BB1FFF745FF27B9104A1369F3
:103CA80023F010031361084B0222C3F808230022F3
:103CB800C3F804219DE718F0A9FEEAE7C4E9043037
:103CC800A6E700BF00E100E000500041801300219A
:103CD800005100410C50004104510041085000417E
:103CE80000ED00E0014B01221A60704700500041CE
:103CF800044B01221A600023034A1360034A13701D
:103D0800704700BF0450004100510041C613002114
:103D1800014B01221A707047C6130021044B1B681F
:103D280023B9044B187800F0010070470120FAE726
:103D380000510041C6130021024BD3F8080400F0DB
:103D48000100704700500041024BD3F8140400F002
:103D58000100704700500041024BD3F81C0400F0EA
:103D68000300704700500041074B0246D3F818146F
:103D7800D3F8180410F4803005D0D0B201F0030352
:103D88001B1A58425841704700500041BFF35F8FDB
:103D9800024A137803F0FE0313707047C81300211A
:103DA800064B1A78D20707D41A7842F001021A7023
:103DB800BFF35F8F0120704700207047C8130021B0
:103DC80008B5FEF7A3FC0A4A034652685069C31AAD
:103DD8001B02B3F5407F03DBBDE80840FEF770BC6B
:103DE800FFF7D4FFFEF714FABDE8084000F03EBB29
:103DF800C8130021104A536870B4154623B9C3612B
:103E0800506070BCFFF7DCBF46691A460024516950
:103E1800711A0902FF3109DBD169144621B9E36936
:103E2800C361E06170BC70470A46F0E79342F6D17F
:103E3800C3616860E5E700BFC8130021074A5368FB
:103E4800834203D1DB6953607047134623B1DA69B3
:103E58009042FAD1C269DA61704700BFC8130021E5
:103E68002DE9F0413B4DFEF751FC01466C68A84630
:103E7800002C6CD0FFF794FF074630B9C81C20F01F
:103E88007F40BDE8F041FEF71BBC6B685869411ADA
:103E98000902B1F5407F22DA2F4E2046FFF7CEFF08
:103EA800257C0DB36369013D03F580032574002566
:103EB80023F07F436361FFF79DFFD8F8044054B1B6
:103EC800FEF724FC03466069C31A1B02B3F5407F62
:103ED80036DBFEF7F5FBBDE8F041FFF757BFFFF70C
:103EE80055FF6B685869CCE7A069C8B1B042217A20
:103EF8001DD9B0FBF6F506FB1505002D08BF3546A4
:103F0800284618F056FD6369184420F07F40606128
:103F1800A069401BB0FBF6F020742046FFF76AFF4B
:103F2800FFF734FFE36820463D469847C5E718F099
:103F380040FD63692574184420F07F406061ECE718
:103F4800002DAAD0FEF764F900F090FAC3E7BDE8A7
:103F5800F08100BFC81300210020A1070148FEF727
:103F680097BB00BF693E00012DE9F0410546884630
:103F7800FFF716FF00286ED04DB3384B5E6816BBAE
:103F880010223146A81800F07FFBFEF7BFFBB8F1FE
:103F9800010F074621D018F0FD0F57D12B7A2C6856
:103FA800002B4BD03D2C4CD8B8F1020F4FF03F04FA
:103FB80000D1AC61297A204618F0FBFC074427F0B1
:103FC8007F476F6133E0B54201D0F669D7E7FFF765
:103FD800DDFE6FF01500BDE8F0812868DFF880800D
:103FE8004045F4D8297A18F0E4FCC01B0302E6D453
:103FF8003846FEF783FE2C68844238BF4444241AAE
:10400800DFF860804445D5D9297AB4FBF8F608FB77
:104018001646002E08BF4646A41B304618F0C9FCB9
:104028000744B4FBF8F427F07F472C746F612846E7
:10403800FFF7E0FEFFF7AAFE0020CCE75D2C38BFB3
:104048005D24B8F1020FDBD1AC61D9E740F265110C
:104058006E2000F06DF96FF02200BCE7C813002154
:10406800E17F841E0020A107BFF34F8F0549064B4F
:10407800CA6802F4E0621343CB60BFF34F8F00BFFE
:10408800FDE700BF00ED00E00400FA05094B01223E
:104098005A604FF0FF32C3F808234FF48032064BC2
:1040A800C3F88020BFF34F8FBFF36F8FC3F8802111
:1040B800704700BF0000014100E100E038B57D4DC8
:1040C80000240123C5F8FC4FC5F8FC3F00F012FAA4
:1040D800002800F0E380A7232C606C602246AC60C7
:1040E8004FF0FF31EC602C616C61AC61EC612C62CB
:1040F8006C62AC62EC622C63C5F88040C5F8844001
:10410800C5F88840C5F88C40C5F89040C5F894407B
:10411800C5F89840C5F89C40C5F8A040C5F8A4402B
:10412800C5F8A840C5F8AC40C5F8B040C5F800418E
:10413800C5F80441C5F80841C5F80C41C5F8104157
:10414800C5F81441C5F81841C5F81C41C5F82841FF
:10415800C5F83041C5F83441C5F83841C5F83C4187
:10416800C5F84041C5F84441C5F84841C5F84C4137
:10417800C5F85041C5F85441C5F85841C5F85C41E7
:10418800C5F86C41C5F87041C5F88041C5F884414F
:10419800C5F88841C5F88C41C5F89041C5F89441E7
:1041A800C5F89841C5F89C41C5F8A841C5F8B04183
:1041B800C5F8B441C5F8B841C5F8BC41C5F8C04117
:1041C800C5F8C441C5F8C841C5F8CC41C5F8D041C7
:1041D800C5F8D441C5F8D841C5F8DC41C5F8EC416B
:1041E800C5F8F041C5F80042C5F80443C5F80843CE
:1041F800C5F80445C5F80845C5F80C45C5F8104587
:10420800C5F81445C5F81845C5F81C45C5F8204536
:10421800C5F82445C5F82845C5F82C45C5F83045E6
:10422800C5F83445C5F83845C5F83C45C5F8444592
:10423800C5F85445C5F86045C5F84046C5F8444634
:10424800C5F84846C5F85046C5F860361A4BC5F853
:104258006446C5F86C364FF42053C5F80049C5F8D4
:104268000439164BC5F810394FF48053C5F8144972
:10427800C5F82849C5F82C49C5F85049C5F8543936
:10428800A300013403F18243082C03F50043C3F86B
:104298000026C3F82026C3F83019F1D1084B4FF493
:1042A8008072C3F88020BFF34F8FBFF36F8FC3F8BE
:1042B800802138BD0080004100002D0582320200B7
:1042C80000E100E070B5184D06460C462B783BBB64
:1042D800164B6A60002808BF1E462972FFF7EEFEDB
:1042E800FFF7D4FE3046FFF729FC0646B0B9FCF7C5
:1042F80077FFFFF783FB18F02AFB002C0CDB04F098
:104308001F0264090123A400934004F1604404F5EA
:104318006144C4F88031236001232B70304670BD9E
:104328004FF0FF36FAE700BFD0130021548B02018B
:104338001FB572B6124B5D6885B9FFF795FEB4FBE1
:10434800F6F4D3B20132002CF9D104AA1A4402F8C7
:104358000C4C0A2233B901A8A847EEE7044600220C
:104368000A26EEE7013B04ACDBB2E618B0FBF2F438
:1043780002FB1400303006F80C0C2046EAE700BFB8
:10438800D0130021074B93F90830002B09DB5A0999
:10439800012103F01F03403201FA03F3024941F8F7
:1043A80022307047D013002100E100E0014B18785B
:1043B800704700BFD01300211B4B4FF4803170B5FC
:1043C800C3F88010BFF34F8FBFF36F8F174D0020D6
:1043D800174CC5F80001C3F880112669216906F059
:1043E800100641F0100121610121C5F8041329606C
:1043F800D5F80031A3B11EB9236923F01003236156
:104408000A4B0122D3F808055A60C3F80823002292
:10441800C3F800214FF48032034BC3F8802170BDEC
:1044280018F0F4FAE4E700BF00E100E00000014101
:1044380000ED00E002460C49052038B5431ED8B20D
:10444800FF2803D148216920FFF772FF01EBC00361
:104458001D7905F0FF04002DF0D141F8302001222C
:104468005C719C711A7138BDDC130021042808B5F1
:1044780003D958216920FFF75BFF094B03EBC00004
:104488000379012B01D05921F4E74379827901336B
:10449800DBB29A4218BF4371BDE80840FFF772BF0C
:1044A800DC13002170B50625114C0026013D15F0DE
:1044B800FF0500D170BD94F8281004EBC1031A79E8
:1044C800012A09D158799A79904205D05A79D2B2FD
:1044D8009A7154F83130984794F828300133DBB298
:1044E800042B94BF84F8283084F82860DEE700BFE6
:1044F800DC130021024B1868831E5842584170474C
:104508003401FF010048704700070841094B0A4A77
:10451800F03BC3F8F0200132C3F8F4200132C3F8AD
:10452800FC200132C3F800210532C3F85C21013AAE
:104538001A6070478081004104000080074A002308
:10454800F03AC2F8F030C2F8F430C2F8FC30C2F8E1
:104558000031C2F85C311360704700BF80810041B0
:104568008AB1013A16D070B4841801E084420CD0A4
:104578000D46064611F8012B10F8013B9342F5D081
:10458800981A70BC70471046704773786A7870BC88
:10459800981A704703780A78981A704781EA0003D6
:1045A8009B072DE9F0415CD187075ED0002A56D0E1
:1045B800034601E0002A52D011F8014B013A03F8F2
:1045C800014B9E07F6D1032A28D941EA0305141F97
:1045D8006D074FEA940E4AD12B2C48D90EF10108E9
:1045E800A1F108051C464FEA580C03EBCC0CF5E981
:1045F8000267E4E802676445F9D118F0010F28F072
:10460800010403D051F8245043F824500EF101045A
:1046180002F0030203EB840301EB8401FAB1541E98
:10462800022C20D922F003070C461D460F4454F8EB
:10463800046BBC4245F8046BF9D122F0030402F084
:104648000305A2422344214409D00A78012D1A7097
:1046580005D04A78022D5A7001D08A789A70BDE840
:10466800F0810346DAE71546EFE70346ABE70EF1BC
:1046780001071D1F0C4601EB870754F8046BBC4269
:1046880045F8046FF9D1C1E72DE9F0438407C9B2B1
:1046980060D0002A5AD0064601E0002A56D006F813
:1046A800011BB30702F1FF32F7D141EA0127032AC0
:1046B80047EA074742D9A2F10408C6F380034FEA44
:1046C800980CB8F1170F0CF1010C45D9B146002B25
:1046D8003ED049F8047BACEB030E06EB83034FEAAC
:1046E8005E0403EBC404C3E9007708339C42FAD1A3
:1046F8002EF00105C5EB8574AE4509EB850308EB83
:10470800840417D0251F1F60032D13D9A4F10805B1
:104718005F60032D0ED9A4F10C059F60032D09D904
:10472800A4F11005DF60032D04D9143C1F61032C8C
:1047380088BF5F6102F0030206EB8C0632B1013AD2
:10474800317003D0012A717018BFB170BDE8F083D1
:104758009046C0E70646A8E733461446D2E700BFAE
:1047680038B50E4C237803F0FF05B3B96378012BF5
:1047780006D102236370636813B163689847656064
:104788006378032B09D10025657063682BB1A36892
:104798005B69984763689847656038BD08140021CD
:1047A800042873B5064604D940F237116820FFF78C
:1047B800BFFD104C0125FFF7D3FF25706378022B4E
:1047C80014D1A3683046DB68984704EB4602537D52
:1047D80083420DD3A37FAB4200D0137D8DF8043004
:1047E80001A8A3688DF805601B68984702B070BDE2
:1047F8002B46F3E70814002110B520B940F24D11FB
:104808006820FFF795FD074B5A78022A1A4602D00E
:104818005B78032B04D19368BDE810405B681847A8
:1048280010BD00BF0814002110B5084C6378022B96
:1048380002D06378032B02D1A3689B6898470023B2
:10484800A3772370BDE81040FFF78ABF0814002142
:10485800064B5A78022A1A4602D05B78032B02D1FB
:1048680093681B6918470020704700BF081400218F
:10487800064B5A78022A1A4602D05B78032B02D1DB
:1048880093689B6918470020704700BF08140021EF
:10489800024B5878003818BF0120704708140021CF
:1048A80000207047074B1A684AB95A683AB99A689B
:1048B8002AB9D868003818BF0120404270474FF025
:1048C800FF307047901400210C4B1A6892B99A6B0C
:1048D80082B95A6872B9DA6B62B993F8240058B190
:1048E80093F840300121104603F1824303F5204339
:1048F800196070474FF0FF30704700BFC4140021A3
:104908004FF0FF307047000038B50C46054680B1BF
:10491800027822B1012A1BD06FF0150017E0224956
:104928000B6991F82F20097F00F0ECFB78B91E4B3A
:104938001D60002C36D02378012BEDD11A4D201D97
:1049480095F82E20297F00F02DFB00B96C6038BD4A
:10495800154B197F19B393F82A1014488900C9B266
:104968000844297941F00041016093F82A00104970
:104978008000014493F8260040F00040086093F856
:104988002F000C49014493F8260040F000400860CD
:1049980093F826309A40084BC3F80425C7E74FF030
:1049A800FF30D4E72046D2E790140021804001412F
:1049B8008041014180A0004100F0004138B50C461B
:1049C800054680B1027822B1012A1BD06FF015008C
:1049D80017E022498B6891F83320097F00F0C6FB65
:1049E80078B91E4B1D60002C36D02378012BEDD1F1
:1049F8001A4D201D95F83220297F00F009FB00B9D7
:104A0800AC6338BD154B197F19B393F82F101448B0
:104A18008900C9B20844297941F00041016093F83E
:104A28002F0010498000014493F82B0040F000400B
:104A3800086093F833000C49014493F82B0040F0C8
:104A48000040086093F82B309A40084BC3F80425BF
:104A5800C7E74FF0FF30D4E72046D2E7C41400215F
:104A6800804001418041014180A0004100F00041A7
:104A78004FF0FF307047000010B5204C206880B11F
:104A8800037833B1012B1AD040F269217220FFF765
:104A98004FFC237F1BB194F82F1000F0CDFB0023AF
:104AA800236063684BB11B78012B23D194F82E1037
:104AB800207F00F0E3FA00236360002010BD227F0E
:104AC800002AECD094F82620002193400C4AC2F822
:104AD80008350C4B94F82F20995003F5214394F88E
:104AE8002A209200995094F82A30074A9B00DBB29A
:104AF800D150D4E74FF41E71C8E700BF90140021CD
:104B080000F0004180A000418040014110B51F4CD9
:104B1800206878B1037833B1012B19D04FF42A718A
:104B28007120FFF705FC94F83320217F00F0A4FBE7
:104B380000232360A36B4BB11B78012B23D194F87E
:104B48003210207F00F0BCFA0023A363002010BDC0
:104B5800227F002AECD094F82B20002193400C4AA5
:104B6800C2F808350B4B94F83320995003F52143CC
:104B780094F82F209200995094F82F30064A9B0001
:104B8800DBB2D150D4E740F2B721C9E7C414002101
:104B980000F0004180A000418040014170470000C2
:104BA8000D4B1A7F4AB1C10707D593F82E20012172
:104BB80002F1824202F52042116093F820204AB1A6
:104BC800820707D593F82C30012203F1824303F5BD
:104BD80020431A60704700BF901400210D4B1A7FC4
:104BE8004AB1C10707D593F83220012102F1824268
:104BF80002F52042116093F820204AB1820707D5B8
:104C080093F83030012203F1824303F520431A6000
:104C1800704700BFC41400214FF0FF3070470000F8
:104C28001F4B1A68002A37D19A68002A34D193F8A2
:104C380020201AB393F829201A499200D2B21144BD
:104C4800C2B242F000420A6093F82910164A89005D
:104C58000A4493F8251041F00041116093F82C1094
:104C6800124A0A4493F8251041F0004111600122CC
:104C780093F825108A400E49C1F804251A7F32B1ED
:104C8800C0B293F82E10094A40F00040505001225B
:104C9800002083F8302070476FF01500704700BF80
:104CA80090140021804001418041014180A00041D1
:104CB80000F000411F4B1A68002A37D15A68002AB1
:104CC80034D193F820201AB393F82E201A49920071
:104CD800D2B21144C2B242F000420A6093F82E10D8
:104CE800164A89000A4493F82A1041F000411160DD
:104CF80093F83010124A0A4493F82A1041F0004100
:104D08001160012293F82A108A400E49C1F804253F
:104D18001A7F32B1C0B293F83210094A40F000400D
:104D280050500122002083F8342070476FF015009E
:104D3800704700BFC41400218040014180410141F7
:104D480080A0004100F0004100230370704700007C
:104D5800034A137F0BB192F918300370704700BFF4
:104D680090140021034A137F0BB192F91830037095
:104D7800704700BFC41400214FF0FF307047000097
:104D880070B50C46054678B1037813B16FF015007D
:104D980070BD0E4E736996F82D2096F8201000F01D
:104DA800B1F90028F4D1B56074B12378012BEDD1A5
:104DB800064D201D95F82C2095F8201000F0F2F8EB
:104DC8000028E5D1EC60E3E72046E1E790140021F4
:104DD80070B50C46054678B1037813B16FF015002D
:104DE80070BD0E4EF36896F8312096F8201000F04A
:104DF800BDF90028F4D1756074B12378012BEDD189
:104E0800064D201D95F8302095F8201000F000F987
:104E18000028E5D1EC63E3E72046E1E7C41400216C
:104E28004FF0FF3070470000164B93F8302032B334
:104E380093F82020BAB193F82510012200208A4067
:104E48001149C1F80825114A93F82C10505002F561
:104E5800214293F829108900505093F829200C49D1
:104E68009200D2B288501A7F2AB193F82E10074ABE
:104E78000A4400211160002083F8300070474FF089
:104E8800FF3070479014002100F0004180A00041DD
:104E980080400141164B93F8342032B393F8202018
:104EA800BAB193F82A10012200208A401149C1F8AA
:104EB8000825114A93F83010505002F5214293F812
:104EC8002E108900505093F82E200C499200D2B22F
:104ED80088501A7F2AB193F83210074A0A440021F1
:104EE8001160002083F8340070474FF0FF3070479E
:104EF800C414002100F0004180A00041804001411D
:104F08004FF0FF307047000010B5124CA06850B148
:104F18000378BBB994F820301BB194F82D1000F039
:104F28008BF90023A360E36853B11B78012B0ED1E2
:104F380094F82C1094F8200000F0A0F80023E36007
:104F4800002010BD40F292217220FFF7F1F940F2E3
:104F5800A121F9E79014002138B5114C606840B1DF
:104F68000578ADB994F8312094F8201000F084F950
:104F78006560E36B53B11B78012B0ED194F83010A8
:104F880094F8200000F09CF80023E363002038BD6B
:104F980040F2D1217120FFF7CBF94FF43871F9E7CE
:104FA800C414002110B5044619B3154B93F830000A
:104FB800C0B193F82C1091421ED193F828200020FC
:104FC80010499200D2B21144227842F000420A609D
:104FD80093F8281093F8253089000B4A43F00043D2
:104FE800535010BD094B1344227842F000421A6016
:104FF800F7E74FF0FF30F4E76FF01500F1E700BF77
:1050080090140021804001418041014180A000416D
:1050180010B5044619B3154B93F83400C0B193F892
:10502800301091421ED193F82D2000201049920093
:10503800D2B21144227842F000420A6093F82D104F
:1050480093F82A3089000B4A43F00043535010BDAF
:10505800094B1344227842F000421A60F7E74FF0F8
:10506800FF30F4E76FF01500F1E700BFC41400212A
:10507800804001418041014180A00041B8B10C4B02
:1050880093F830208AB193F82C208A420FD193F8F4
:105098002810084A89000A440021116093F8283032
:1050A800054A9B00DBB2D1507047044B5A507047F9
:1050B80090140021804101418040014180A00041BD
:1050C800B8B10C4B93F834208AB193F830208A4257
:1050D8000FD193F82D10084A89000A440021116065
:1050E80093F82D30054A9B00DBB2D1507047044B32
:1050F8005A507047C4140021804101418040014149
:1051080080A00041F8B5044617461E4629B3007C26
:1051180017F0CBFC124D8100626895F82430C0B2BC
:1051280001F5A07143F0004300F5A87089B2803101
:10513800535095F824200B4B42F00042DA510123DA
:10514800E2686168921B41F82020002095F824202D
:105158009340054AC2F80435F8BD4FF0FF30FBE72D
:105168009014002180A0004100F000412DE9F04199
:10517800054690461F460C462C4E11B3007C002174
:1051880017F0A8FC96F829208300696842F00042CD
:10519800C0B203F5A07300F5A8709BB28033CA5063
:1051A800012196F82920224B42F0004243F80820BA
:1051B800EB6896F829406A68DB1B01FA04F442F8A8
:1051C800203096F824305BB3287C17F083FC96F8DF
:1051D80028308200696843F00043C0B202F5A0722B
:1051E80000F5A87092B280328B5096F84120104B8F
:1051F800134496F8282042F000421A6033696A681E
:105208001F44EB68DF1B012342F8207096F8282022
:1052180093401C43074B0020C3F80445BDE8F081C8
:105228000029F7D14FF0FF30F8E700BFC414002180
:1052380080A0004100F0004138B50C4B04460D46F3
:1052480093F8242001239340094AC2F80835007CCA
:1052580017F02BFC074B00225A518300616803F5B5
:10526800A0739BB28033CA5038BD00BF9014002190
:1052780000F0004180A00041F8B5054617461A4ED7
:10528800B1B196F829300124184A002104FA03F331
:10529800C2F80835007C17F01DFC154B0022DA51C6
:1052A8008300696803F5A0739BB28033CA50214616
:1052B80096F82430B3B196F82820012393400B4A7E
:1052C800C2F80835287C17F005FC96F84120084BF1
:1052D800134400221A608300696803F5A0739BB227
:1052E8008033CA50F8BD00BFC414002100F000414B
:1052F80080A00041014B1B681B6818470C00002167
:10530800014B1B685B6818470C000021014B1B68A8
:105318009B6818470C000021014B1B68DB68184785
:105328000C000021014B1B681B6918470C00002169
:10533800014B1B681B6A18470C00002100232DE94C
:10534800F3478DF80030C41C454B0F1E24F00304AE
:1053580005461A789A46694608BF20468DF8012006
:1053680018BF00205A788DF802209A788DF803200B
:10537800DA788DF804201A798DF8052000F03EFEC1
:105388009AF80210044451B1002FBAF812309AF872
:1053980003200CBF2046002001F02CF904449AF8A1
:1053A80018307BB19AF8101061B19AF81930002BB7
:1053B80014BFFF222522002F0CBF2046002001F039
:1053C800A7FA04449AF8041059B10334002F9AF844
:1053D800142024F0030414BF0020204615F01CFB01
:1053E80004449AF8151049B10334002F24F003043B
:1053F80014BF0020204601F0E9FA04449AF800801E
:1054080000269AF80130B14698445FFA88F8F3B25A
:10541800984512D80334002F4A46414624F0030425
:1054280014BF0020204600F035FF0444073424F060
:105438000704601B02B0BDE8F0879AF8083001360F
:105448009AF80720022B9AF806109AF8050038BF38
:105458000223032A38BF032219F015F98144D6E73D
:10546800A00500211FB572B6174BDD69DDB9BFF382
:105478004F8F1649164BCA6802F4E0621343CB609B
:10548800BFF34F8F00BFFDE7B4FBF6F4D3B2013290
:10549800002CF9D104AA1A4402F80C4C0A2233B998
:1054A80001A8A847E3E7044600220A26EEE7013BE5
:1054B80004ACDBB2E618B0FBF2F402FB14003030A7
:1054C80006F80C0C2046EAE7A005002100ED00E0F4
:1054D8000400FA051FB5184C02A8237A022B38BF1E
:1054E80002238DF80930E379032B38BF03238DF8A5
:1054F8000830A379ADF80C306379ADF80A3015F0AF
:1055080031F918B184210320FFF7ACFFE36801A843
:10551800019315F03DF908B18821F4E79DF80030B2
:10552800684643F001038DF800301AF053FD08B1C6
:105538008C21E8E704B010BDA005002138B5054668
:10554800002843D0FEF732FF10B94FF0FF3038BDC6
:10555800FEF77EF9B0F5FA7FF7D81E4C1E48E561D4
:1055680000F082FA002118222046032584F8201032
:1055780084F8211021766176FFF786F840F201134E
:1055880041F64C52257423800123E2601F22A37048
:105598001B236282637140F21B33E3800223237270
:1055A8002375EFF3108472B60C486FF00C0101F00C
:1055B800A5FA0B4801F07CFB18B19A212846FFF7A1
:1055C80051FF002CC3D162B62046C0E76FF015002A
:1055D800BDE700BFA0050021DD54000100600040C8
:1055E8001D58000110B500284CD12C4C94F82030DF
:1055F800002B4AD171B1002A4AD001390A2947D86B
:10560800DFE801F00613161A1D29302333363B0054
:105618001378237001210020FFF790FEB0F5803F3A
:1056280039DA012384F8213010BD13786370F1E76B
:105638001068C4F80500EDE71368E360EAE713783B
:10564800E278934224D3A370E4E71378A2789342D4
:105658001ED8E370DEE71378227E0AB1012B17D932
:105668002374D7E713886382D4E713782371D1E7CB
:105678001378012B0CD92375CCE71378082B07D89E
:105688006375C7E76FF02C00CEE74FF0FF30CBE72C
:105698006FF01500C8E76FF00B00C5E7A005002103
:1056A80038B50C460546D8B1D1B100F00BF9D0B1E8
:1056B80028460E4DFEF7BEFE002185F82200204642
:1056C800FFF73CFE15F0E6F995F82200002115F0E9
:1056D80025F9FFF7FFFE0123002085F8203038BDAB
:1056E8006FF01500FBE74FF0FF30F8E7A005002149
:1056F80050B1074B03F1140253F8041B934240F8CE
:10570800041BF9D1002070476FF01500704700BFE7
:105718003A930201074B93F8212010B532B993F858
:1057280020401CB915F094F8204610BD4FF0FF300A
:10573800FBE700BFA0050021074B93F8212010B517
:1057480032B993F820401CB915F096F8204610BDE0
:105758004FF0FF30FBE700BFA0050021084B93F88E
:10576800212010B542B993F820402CB901221A76AD
:1057780015F0A4F8204610BD4FF0FF30FBE700BF3E
:10578800A0050021074B93F8212010B532B993F8F2
:1057980020401CB915F0A6F8204610BD4FF0FF3088
:1057A800FBE700BFA0050021074B93F8212010B5A7
:1057B80032B993F820401CB914F0F6FF204610BD0A
:1057C8004FF0FF30FBE700BFA0050021074B93F81F
:1057D800212010B532B993F820401CB91AF008FC02
:1057E800204610BD4FF0FF30FBE700BFA0050021A9
:1057F800074B93F8212010B532B993F820401CB913
:105808001AF000FC204610BD4FF0FF30FBE700BF48
:10581800A005002137B5114C256801A801F014FA3C
:10582800034618B1052816D035210BE0019A022A43
:1058380005D0032AF1D1226852B92D2102E022684D
:105848001AB928210420FFF70DFE2360A847E4E7D2
:1058580001202360FAE703B030BD00BFC405002172
:1058680007C8024B83E8070000207047C8050021DD
:10587800054B5B6810B51BB97D210420FFF7F2FDCD
:10588800BDE81040184700BFC4050021054B9B68C0
:1058980010B51BB983210420FFF7E4FDBDE81040D3
:1058A800184700BFC4050021054BDB6810B51BB9BC
:1058B80089210420FFF7D6FDBDE81040184700BF36
:1058C800C4050021044B586828B1986818B1D868F5
:1058D800003818BF01207047C405002138B50546B7
:1058E8000C4600F07BF870B13E2D0CD1122C05D17E
:1058F800054B1A78022A01D0587820B12046BDE815
:10590800384000F0A3B838BDD4050021014B5870C9
:10591800704700BFD40500212DE9F341244E054608
:10592800B04606F58277B4787CB1327928462149A9
:105938000232FEF733FE0023B370A9782878FFF708
:10594800CDFF04460028EED02EE0384606F05EFE75
:1059580050B396F80431142B09D10A213E20FFF7E1
:10596800BDFF20B93946284617F03BF9E5E798F816
:1059780004310A2B12D105213E20FFF7AFFF68B989
:10598800B8F8083101A96846ADF8003017F0D0FC26
:10599800044648B19B210820FFF764FD3946284694
:1059A80017F072F90028C8D1204602B0BDE8F0818E
:1059B800D4050021D7050021064B4FF0FF3141F6F1
:1059C800FF72C3E90012044A002111601F229A6085
:1059D800704700BF14000021E00700213F280ED8BF
:1059E80020280B4B03D80138C0B21B6802E02138CD
:1059F8005B68C0B223FA00F000F001007047FF288E
:105A080003D04038034BC0B2EFE70120704700BF16
:105A180014000021E00700214368026843F0107376
:105A2800034942F48C2243F4FF630A604B607047D9
:105A3800140000210268014B1A607047E00700213A
:105A48000268014B9A607047140000210138012355
:105A5800C0B203FA00F0034B9B68184214BF012040
:105A68000020704714000021014B1860704700BFE8
:105A7800E407002110B5FFF79FFF0020FFF746FF5E
:105A880019F0CBFB034B04461B6803B1984720462B
:105A980010BD00BFE407002138B5264C0546D4F8F0
:105AA800A432013306D1D4F8A8324FF6FF729BB264
:105AB80093423DD0D4F8A032DB0739D5D4F8A422DC
:105AC800D4F8A832C5F80120A5F80530AB7963F001
